:100000000C942A000C9447000C9447000C94470071
:100010000C9447000C9447000C9447000C94470044
:100020000C9447000C9447000C9447000C94470034
:100030000C9447000C9447000C9447000C94470024
:100040000C9447000C9447000C9447000C94470014
:100050000C94470011241FBECFE5D8E0DEBFCDBF12
:1000600010E0A0E6B0E0E4E2FBE302C005900D92F0
:10007000A43FB107D9F711E0A4EFB0E001C01D9291
:10008000A830B107E1F70E943B190C94901D0C9425
:100090000000EF92FF920F931F937B018C0120E0F1
:1000A00030E040E05FE40E94490388238CF0C801FF
:1000B000B70120E030E040E05FE40E94C1010E940F
:1000C000A9039B01AC01205030404040504806C07D
:1000D000C801B7010E94A9039B01AC01B901CA0183
:1000E0001F910F91FF90EF900895A0E0B0E0EBE733
:1000F000F0E00C94B11ADC012B01FA019C919230D2
:1001000008F439C1EB018881823008F433C194309E
:1001100069F4843009F02FC111969C91119789815F
:10012000981709F428C1ABE7B0E025C1843009F481
:1001300021C18230A9F4923009F01DC19A01AD01AC
:1001400088E0EA010990AE01E90109929E0181501F
:10015000C1F7E201898111969C918923818308C1AD
:10016000923009F407C112962D903C901397EB0141
:100170008A819B811496AD90BD90CD90DC901797AD
:10018000EC80FD800E811F819101281B390BB90184
:1001900037FF04C066277727621B730B6032710537
:1001A0000CF061C0121613066CF537014801062EDB
:1001B00004C096948794779467940A94D2F721E0C8
:1001C00030E040E050E004C0220F331F441F551FB1
:1001D0006A95D2F721503040404050402E213F21B7
:1001E00040235123211531054105510521F021E01E
:1001F00030E040E050E079018A01E628F72808293C
:1002000019293CC0232BD1F1260E371E350146019A
:10021000062E04C096948794779467940A94D2F734
:1002200021E030E040E050E004C0220F331F441FC3
:10023000551F6A95D2F721503040404050402A2146
:100240003B214C215D21211531054105510521F04E
:1002500021E030E040E050E059016A01A628B728CB
:10026000C828D9280BC0821593052CF01C01AA249C
:10027000BB24650103C0EE24FF24870111969C91E5
:10028000D20111968C91981709F445C0992339F041
:10029000A80197012A193B094C095D0906C0A6016E
:1002A00095012E193F09400B510B57FD08C01182D3
:1002B0003382228224833583468357831DC081E0A5
:1002C00081833382228288279927DC01821B930B4A
:1002D000A40BB50B84839583A683B7830DC0220F2F
:1002E000331F441F551F24833583468357838281E0
:1002F000938101979383828324813581468157813D
:10030000DA01C9010197A109B1098F5F9F4FAF4F72
:10031000BF4328F30BC0918333822282EA0CFB1C7B
:100320000C1D1D1DE482F5820683178383E0808304
:10033000248135814681578157FF1AC0C901AA27F8
:1003400097FDA095BA2F81709070A070B0705695EF
:10035000479537952795822B932BA42BB52B848318
:100360009583A683B7838281938101969383828349
:10037000DF0101C0D201CD01CDB7DEB7E2E10C94BF
:10038000CD1AA0E2B0E0E7ECF1E00C94BD1A69836D
:100390007A838B839C832D833E834F835887E9E048
:1003A000EE2EF12CEC0EFD1ECE010196B7010E943F
:1003B000D2048E010F5E1F4FCE010596B8010E9438
:1003C000D2048A8991E089278A8BC701B801AE01DE
:1003D000475E5F4F0E9475000E94FD03A096E6E015
:1003E0000C94D91AA0E2B0E0E8EFF1E00C94BD1A49
:1003F00069837A838B839C832D833E834F835887C5
:10040000F9E0EF2EF12CEC0EFD1ECE010196B701A6
:100410000E94D2048E010F5E1F4FCE010596B801D7
:100420000E94D204C701B801AE01475E5F4F0E942F
:1004300075000E94FD03A096E6E00C94D91AA0E294
:10044000B0E0E5E2F2E00C94B11A69837A838B8321
:100450009C832D833E834F835887CE010196BE0136
:10046000675F7F4F0E94D204CE010596BE016F5E8A
:100470007F4F0E94D2049985923088F0898982301A
:10048000C8F0943019F4823051F404C0843029F457
:10049000923081F48BE790E0C6C0923049F420E0BE
:1004A0009A858A89981321E02A87CE010996BBC0D4
:1004B000823049F420E09A858A89981321E02A8BBA
:1004C000CE014196B0C02D843E844F8458886D88FB
:1004D0007E888F88988CEE24FF248701AA24BB2471
:1004E000650140E050E060E070E0E0E0F0E0C10174
:1004F00081709070892BE9F0E60CF71C081D191D1E
:100500009A01AB012A0D3B1D4C1D5D1D80E090E062
:10051000A0E0B0E0E614F7040805190520F481E036
:1005200090E0A0E0B0E0BA01A901480F591F6A1F8E
:100530007B1FAA0CBB1CCC1CDD1C97FE08C081E0F5
:1005400090E0A0E0B0E0A82AB92ACA2ADB2A3196B6
:10055000E032F10549F0660C771C881C991C569412
:10056000479437942794C3CFFA85EA892B893C892D
:100570008B859C85280F391F2E5F3F4F17C0CA01FE
:1005800081709070892B61F016950795F794E79428
:1005900080E090E0A0E0B0E8E82AF92A0A2B1B2BC3
:1005A00076956795579547952F5F3F4F77FDE7CF36
:1005B0000CC0440F551F661F771F17FD4160EE0CDE
:1005C000FF1C001F111F21503040403090E05907A0
:1005D00090E0690790E4790760F32B8F3C8FDB0193
:1005E000CA018F779070A070B07080349105A1051A
:1005F000B10561F447FD0AC0E114F10401051105DC
:1006000029F0405C5F4F6F4F7F4F40781A8EFE1786
:1006100011F081E08A8F4D8F5E8F6F8F78A383E01A
:10062000898FCE0149960E94FD03A096E2E10C94C9
:10063000CD1AA8E1B0E0EFE1F3E00C94BD1A6983B4
:100640007A838B839C832D833E834F83588789E0F5
:10065000E82EF12CEC0EFD1ECE010196B7010E9492
:10066000D2048E010F5E1F4FCE010596B8010E9485
:10067000D2048985823040F08989823028F0C70110
:10068000B8010E944A0501C08FEF6896E6E00C941D
:10069000D91AA8E1B0E0EFE4F3E00C94BD1A698345
:1006A0007A838B839C832D833E834F83588789E095
:1006B000E82EF12CEC0EFD1ECE010196B7010E9432
:1006C000D2048E010F5E1F4FCE010596B8010E9425
:1006D000D2048985823040F08989823028F0C701B0
:1006E000B8010E944A0501C08FEF6896E6E00C94BD
:1006F000D91AA8E1B0E0EFE7F3E00C94BD1A6983E2
:100700007A838B839C832D833E834F83588789E034
:10071000E82EF12CEC0EFD1ECE010196B7010E94D1
:10072000D2048E010F5E1F4FCE010596B8010E94C4
:10073000D2048985823040F08989823028F0C7014F
:10074000B8010E944A0501C081E06896E6E00C9479
:10075000D91AACE0B0E0EFEAF3E00C94C11A698377
:100760007A838B839C83CE010196BE016B5F7F4FA2
:100770000E94D2048D81823061F1823050F1843048
:1007800021F48E81882351F12EC02F81388537FDC9
:1007900020C06E812F3131051CF06623F9F023C093
:1007A0008EE190E0821B930B29853A854B855C8511
:1007B00004C056954795379527958A95D2F76623B5
:1007C000B1F050954095309521953F4F4F4F5F4F79
:1007D0000EC020E030E040E050E009C02FEF3FEFD6
:1007E0004FEF5FE704C020E030E040E050E8B9019F
:1007F000CA012C96E2E00C94DD1ADF92EF92FF9290
:100800000F931F93FC01E480F58006811781D1804E
:100810008081823048F480E090E0A0E1B0E0E82AF6
:10082000F92A0A2B1B2BA5C0843009F49FC0823003
:1008300021F4EE24FF24870105C0E114F104010531
:10084000110519F4E0E0F0E096C0628173819FEF3A
:10085000623879070CF05BC022E83FEF261B370BAC
:100860002A3131052CF020E030E040E050E02AC091
:10087000B801A701022E04C0769567955795479554
:100880000A94D2F781E090E0A0E0B0E004C0880FC5
:10089000991FAA1FBB1F2A95D2F70197A109B10979
:1008A0008E219F21A023B1230097A105B10521F03E
:1008B00081E090E0A0E0B0E09A01AB01282B392B59
:1008C0004A2B5B2BDA01C9018F779070A070B07052
:1008D00080349105A105B10539F427FF09C0205CDA
:1008E0003F4F4F4F5F4F04C0215C3F4F4F4F5F4F13
:1008F000E0E0F0E02030A0E03A07A0E04A07A0E402
:100900005A0710F0E1E0F0E079018A0127C0603871
:10091000710564F5FB01E158FF4FD801C7018F77DE
:100920009070A070B07080349105A105B10539F4C4
:10093000E7FE0DC080E490E0A0E0B0E004C08FE3EB
:1009400090E0A0E0B0E0E80EF91E0A1F1B1F17FFA1
:1009500005C016950795F794E794319687E01695AC
:100960000795F794E7948A95D1F705C0EE24FF2404
:100970008701EFEFF0E06E2F679566276795902F60
:100980009F77D794DD24D7948E2F8695492F462BB9
:10099000582F5D29B701CA011F910F91FF90EF9069
:1009A000DF900895FC01DB01408151812281622F9B
:1009B0006F7770E0221F2227221F9381892F880FD3
:1009C000822B282F30E0991F9927991F11969C930D
:1009D000119721153105A9F54115510561057105DD
:1009E00011F482E037C082E89FEF13969C938E93B8
:1009F00012979A01AB0167E0220F331F441F551F66
:100A00006A95D1F783E08C930DC0220F331F441FEA
:100A1000551F12968D919C911397019713969C9355
:100A20008E931297203080E0380780E0480780E4FA
:100A3000580758F314962D933D934D935C93179755
:100A400008952F3F310579F4411551056105710570
:100A500019F484E08C93089564FF03C081E08C93C3
:100A600012C01C9210C02F57304013963C932E9307
:100A7000129783E08C9387E0440F551F661F771F02
:100A80008A95D1F7706414964D935D936D937C9322
:100A9000179708951F93DC01FB019C91923008F495
:100AA00047C08081823008F443C0943051F41196DD
:100AB0001C91843099F58181682F70E0611B710968
:100AC0003FC0843021F0923031F48230B9F181811D
:100AD000882389F12DC011961C9111978230F1F075
:100AE00081811817D9F412962D913C911397828128
:100AF00093818217930794F028173907BCF0149656
:100B00008D919D910D90BC91A02D248135814681C0
:100B10005781281739074A075B0718F4112341F05A
:100B20000AC082179307A407B50740F4112319F0F0
:100B300061E070E005C06FEF7FEF02C060E070E041
:100B4000CB011F910895DF93CF9300D000D00F9277
:100B5000CDB7DEB79B838A8381E089838A819B81BD
:100B6000009759F0EA81FB81808186958695877090
:100B7000882F90E08830910514F0198275C0EA81C1
:100B8000FB8180818295869587708170282F30E067
:100B90003D832C838C819D810097B1F12C813D8117
:100BA0002130310509F060C0EA81FB8180818370CA
:100BB000882F90E0880F991FFC01ED57FF4FA0810F
:100BC000B181EA81FB8180818370882F90E0880F5A
:100BD000991FFC01ED57FF4F0190F081E02D8081BE
:100BE000482FEA81FB818081869586958770282F22
:100BF00030E081E090E0022E02C0880F991F0A9435
:100C0000E2F7842B8C9330C0EA81FB818081837072
:100C1000882F90E0880F991FFC01ED57FF4FA081AE
:100C2000B181EA81FB8180818370882F90E0880FF9
:100C3000991FFC01ED57FF4F0190F081E02D80815D
:100C4000482FEA81FB818081869586958770282FC1
:100C500030E081E090E0022E02C0880F991F0A94D4
:100C6000E2F7809584238C9389810F900F900F90E9
:100C70000F900F90CF91DF910895DF93CF9300D025
:100C800000D00F92CDB7DEB79B838A837D836C83C0
:100C900081E089838A819B81009779F08C819D8195
:100CA000009759F0EA81FB8180818695869587704F
:100CB000882F90E08830910514F0198227C0EA81CE
:100CC000FB8180818295869587708170882F90E066
:100CD000880F991FFC01ED57FF4F0190F081E02D27
:100CE0008081282F30E0EA81FB818081869586957E
:100CF0008770882F90E0A90102C0559547958A9585
:100D0000E2F7CA018170EC81FD81808389810F90B7
:100D10000F900F900F900F90CF91DF910895DF9378
:100D2000CF9300D000D000D0CDB7DEB79B838A83AD
:100D30006C8381E089838A819B81009759F0EA81E5
:100D4000FB818081869586958770882F90E088301A
:100D5000910514F019826FC08C81282F30E03E83FA
:100D60002D838D819E810097B1F12D813E812130AF
:100D7000310509F060C0EA81FB8180818370882F92
:100D800090E0880F991FFC01E557FF4FA081B181CA
:100D9000EA81FB8180818370882F90E0880F991F02
:100DA000FC01E557FF4F0190F081E02D8081482F35
:100DB000EA81FB818081869586958770282F30E0B7
:100DC00081E090E0022E02C0880F991F0A94E2F79A
:100DD000842B8C9330C0EA81FB8180818370882FC3
:100DE00090E0880F991FFC01E557FF4FA081B1816A
:100DF000EA81FB8180818370882F90E0880F991FA2
:100E0000FC01E557FF4F0190F081E02D8081482FD4
:100E1000EA81FB818081869586958770282F30E056
:100E200081E090E0022E02C0880F991F0A94E2F739
:100E3000809584238C93898126960FB6F894DEBF23
:100E40000FBECDBFCF91DF910895DF93CF9300D038
:100E500000D00F92CDB7DEB79B838A837D836C83EE
:100E600081E089838A819B81009779F08C819D81C3
:100E7000009759F0EA81FB8180818695869587707D
:100E8000882F90E08830910514F0198224C0EA81FF
:100E9000FB8180818370882F90E0880F991FFC016F
:100EA000ED56FF4F0190F081E02D8081282F30E03A
:100EB000EA81FB818081869586958770882F90E0F6
:100EC000A90102C0559547958A95E2F7CA0181703C
:100ED000EC81FD81808389810F900F900F900F909E
:100EE0000F90CF91DF910895DF93CF9300D00F92B1
:100EF000CDB7DEB79B838A8381E089838A819B811A
:100F0000009759F0EA81FB818081869586958770EC
:100F1000882F90E08830910514F019822FC0EA8163
:100F2000FB8180818370882F90E0880F991FFC01DE
:100F3000E557FF4FA081B181EA81FB8180818370F9
:100F4000882F90E0880F991FFC01E557FF4F019013
:100F5000F081E02D8081482FEA81FB818081869598
:100F600086958770282F30E081E090E0022E02C045
:100F7000880F991F0A94E2F784278C9389810F9038
:100F80000F900F90CF91DF910895DF93CF9300D012
:100F90000F92CDB7DEB79B838A8381E089838A81F4
:100FA0009B81009711F4198214C08A819B810E9451
:100FB000A3058983EA81FB81808182958695869548
:100FC00083708170282F8A819B81622F0E948F06F7
:100FD000898389810F900F900F90CF91DF910895B1
:100FE000DF93CF9300D00F92CDB7DEB78A836B83A8
:100FF00081E089838A81843010F019820DC08A8152
:10100000882F90E0880F991FFC01ED57FF4F01904A
:10101000F081E02D8B81808389810F900F900F905C
:10102000CF91DF910895DF93CF9300D000D0CDB75B
:10103000DEB78A837C836B8381E089838B819C818B
:10104000009729F48A81843010F019820FC08A81B8
:10105000882F90E0880F991FFC01ED57FF4F0190FA
:10106000F081E02D8081EB81FC81808389810F906C
:101070000F900F900F90CF91DF910895DF93CF9352
:1010800000D00F92CDB7DEB78A836B8381E089836E
:101090008A81843010F019820DC08A81882F90E0F7
:1010A000880F991FFC01E557FF4F0190F081E02D5B
:1010B0008B81808389810F900F900F90CF91DF916A
:1010C0000895DF93CF9300D000D0CDB7DEB78A83E9
:1010D0007C836B8381E089838B819C81009729F4D9
:1010E0008A81843010F019820FC08A81882F90E0A5
:1010F000880F991FFC01E557FF4F0190F081E02D0B
:101100008081EB81FC81808389810F900F900F900B
:101110000F90CF91DF910895DF93CF9300D0CDB79B
:10112000DEB78A8381E089838A81843010F0198256
:1011300018C08A81882F90E0880F991FFC01E5571D
:10114000FF4FA081B1818A81882F90E0880F991F7D
:10115000FC01E557FF4F0190F081E02D80818095E3
:101160008C9389810F900F90CF91DF910895DF9339
:10117000CF9300D000D0CDB7DEB79C838B8381E0C6
:1011800089838B819C81009711F4198234C0EB8193
:10119000FC8180818F70282F2370EB81FC818081FE
:1011A000982F92959F709770EB81FC818081382FEA
:1011B000331F3327331F23708A818C7F822B8A83CE
:1011C000892F8770982F990F990F8A81837E892B99
:1011D0008A838A8180628A83832F8170982F929577
:1011E000990F990F907C8A818F7B892B8A83CE01FE
:1011F00002960E94C50789810F900F900F900F9063
:10120000CF91DF910895DF93CF9300D000D0CDB779
:10121000DEB79C838B8381E089838B819C810097DF
:1012200011F4198235C0EB81FC8180818F70282FE9
:101230002370EB81FC818081982F92959F7097702D
:10124000EB81FC818081382F331F3327331F2370BC
:101250008A818C7F822B8A83892F8770982F990FA0
:10126000990F8A81837E892B8A838A8180628A830F
:10127000832F8170982F9295990F990F907C8A8176
:101280008F7B892B8A83CE01029661E00E948F06B4
:1012900089810F900F900F900F90CF91DF9108955B
:1012A000DF93CF9300D000D0CDB7DEB79C838B8384
:1012B00081E089838B819C81009711F4198235C06C
:1012C000EB81FC8180818F70282F2370EB81FC8162
:1012D0008081982F92959F709770EB81FC8180811F
:1012E000382F331F3327331F23708A818C7F822B43
:1012F0008A83892F8770982F990F990F8A81837E0F
:10130000892B8A838A8180628A83832F8170982FB8
:101310009295990F990F907C8A818F7B892B8A8374
:10132000CE01029660E00E948F0689810F900F9097
:101330000F900F90CF91DF910895DF93CF9300D05E
:1013400000D0CDB7DEB79C838B8381E089838B810E
:101350009C81009711F4198234C0EB81FC8180815B
:101360008F70282F2370EB81FC818081982F9295BC
:101370009F709770EB81FC818081382F331F33275A
:10138000331F23708A818C7F822B8A83892F8770F9
:10139000982F990F990F8A81837E892B8A838A815E
:1013A00080628A83832F8170982F9295990F990F6D
:1013B000907C8A818F7B892B8A83CE0102960E9442
:1013C000740789810F900F900F900F90CF91DF914C
:1013D0000895DF93CF9300D00F92CDB7DEB79B83F4
:1013E0008A8381E089838A819B81009711F4198225
:1013F00005C08A819B810E94A305898389810F9002
:101400000F900F90CF91DF910895DF93CF9300D08D
:1014100000D000D0CDB7DEB79C838B837E836D83F5
:1014200019821A828B819C81009721F08D819E8187
:10143000009711F419822BC08B819C819E012E5F35
:101440003F4FB9010E942507EB81FC8182818823EF
:1014500061F48A81813021F4ED81FE81108215C012
:10146000ED81FE8181E0808310C0EB81FC8182816F
:10147000813059F48A81882321F4ED81FE81108224
:1014800004C0ED81FE8181E0808381E089838981D0
:1014900026960FB6F894DEBF0FBECDBFCF91DF9179
:1014A0000895DF93CF9300D000D0CDB7DEB79C83F3
:1014B0008B8381E089838B819C81009711F4198251
:1014C00037C0EB81FC8180818770282F2370EB81EE
:1014D000FC818081982F9695969596959770EB81D3
:1014E000FC818081382F3295369536953370317076
:1014F00023708A818C7F822B8A83892F8770982F13
:10150000990F990F8A81837E892B8A838A818062D1
:101510008A83832F8170982F9295990F990F907CD1
:101520008A818F7B892B8A83CE0102960E94C50710
:1015300089810F900F900F900F90CF91DF910895B8
:10154000DF93CF9300D000D0CDB7DEB79C838B83E1
:1015500081E089838B819C81009711F4198238C0C6
:10156000EB81FC8180818770282F2370EB81FC81C7
:101570008081982F9695969596959770EB81FC8132
:101580008081382F329536953695337031702370BF
:101590008A818C7F822B8A83892F8770982F990F5D
:1015A000990F8A81837E892B8A838A8180628A83CC
:1015B000832F8170982F9295990F990F907C8A8133
:1015C0008F7B892B8A83CE01029661E00E948F0671
:1015D00089810F900F900F900F90CF91DF91089518
:1015E000DF93CF9300D000D0CDB7DEB79C838B8341
:1015F00081E089838B819C81009711F4198238C026
:10160000EB81FC8180818770282F2370EB81FC8126
:101610008081982F9695969596959770EB81FC8191
:101620008081382F3295369536953370317023701E
:101630008A818C7F822B8A83892F8770982F990FBC
:10164000990F8A81837E892B8A838A8180628A832B
:10165000832F8170982F9295990F990F907C8A8192
:101660008F7B892B8A83CE01029660E00E948F06D1
:1016700089810F900F900F900F90CF91DF91089577
:10168000DF93CF9300D000D0CDB7DEB79C838B83A0
:1016900081E089838B819C81009711F4198237C086
:1016A000EB81FC8180818770282F2370EB81FC8186
:1016B0008081982F9695969596959770EB81FC81F1
:1016C0008081382F3295369536953370317023707E
:1016D0008A818C7F822B8A83892F8770982F990F1C
:1016E000990F8A81837E892B8A838A8180628A838B
:1016F000832F8170982F9295990F990F907C8A81F2
:101700008F7B892B8A83CE0102960E947407898180
:101710000F900F900F900F90CF91DF910895DF936E
:10172000CF93CDB7DEB7A0970FB6F894DEBF0FBE4C
:10173000CDBF98A38F8F81E08E8F1D8E8F8D98A146
:10174000009711F41E8E3CC18F8D98A10E94C50791
:101750008E8F8F8D98A101960E94C5078E8F1D8E4A
:1017600010C08F8D98A19C012E5F3F4F8D8D882FCB
:1017700090E0820F931F0E94C5078E8F8D8D8F5F23
:101780008D8F8D8D843068F380E090E0A0E2B2E42C
:10179000898F9A8FAB8FBC8F698D7A8D8B8D9C8D45
:1017A00020E030E04AEF54E40E941F02DC01CB014C
:1017B0008D8B9E8BAF8BB88F6D897E898F89988D2D
:1017C00020E030E040E85FE30E94790388232CF4B6
:1017D00081E090E09C8B8B8B3FC06D897E898F89E7
:1017E000988D20E03FEF4FE757E40E941903181649
:1017F0004CF5698D7A8D8B8D9C8D20E030E040E238
:1018000051E40E941F02DC01CB01BC01CD010E940A
:101810004900DC01CB019C8B8B8B0FC088EC90E0E6
:101820009A8B898B89899A890197F1F79A8B898B91
:101830008B899C8901979C8B8B8B8B899C890097CA
:1018400069F714C06D897E898F89988D0E9449003F
:10185000DC01CB019C8B8B8B8B899C89988B8F8730
:101860008F8598890197F1F7988B8F878F8D98A135
:1018700063E00E9477138F8D98A10E94C4138F8D0F
:1018800098A163E00E9477138F8D98A10E94C413E2
:101890008F8D98A163E00E9477138F8D98A10E948D
:1018A000C4138F8D98A162E00E9477138F8D98A149
:1018B0000E94C4138F8D98A168E20E94EA0C8F8D5C
:1018C00098A16CE00E94EA0C8F8D98A166E00E94BE
:1018D000EA0C8F8D98A161E00E94EA0C80E090E014
:1018E000A0E4B0E48B879C87AD87BE876B857C8541
:1018F0008D859E8520E030E04AEF54E40E941F026F
:10190000DC01CB018F839887A987BA876F8178859F
:1019100089859A8520E030E040E85FE30E94790302
:1019200088232CF481E090E09E838D833FC06F81FB
:10193000788589859A8520E03FEF4FE757E40E943C
:10194000190318164CF56B857C858D859E8520E0E6
:1019500030E040E251E40E941F02DC01CB01BC01F7
:10196000CD010E944900DC01CB019E838D830FC015
:1019700088EC90E09C838B838B819C810197F1F7AD
:101980009C838B838D819E8101979E838D838D8126
:101990009E81009769F714C06F81788589859A8543
:1019A0000E944900DC01CB019E838D838D819E8145
:1019B0009A83898389819A810197F1F79A83898330
:1019C0008E8DA0960FB6F894DEBF0FBECDBFCF911F
:1019D000DF910895DF93CF9300D000D0CDB7DEB76D
:1019E0009B838A836C8381E089838A819B810097B2
:1019F00011F4198220C08A819B8160E00E948F06C9
:101A000089838C81282F22952F708A819B81622F58
:101A10000E94771389838A819B810E94C4138983E2
:101A20008A819B816C810E94771389838A819B8143
:101A30000E94C413898389810F900F900F900F909B
:101A4000CF91DF910895DF93CF9300D000D0CDB731
:101A5000DEB79B838A836C8381E089838A819B8143
:101A6000009711F4198220C08A819B8161E00E9455
:101A70008F0689838C81282F22952F708A819B81E4
:101A8000622F0E94771389838A819B810E94C413ED
:101A900089838A819B816C810E94771389838A81E3
:101AA0009B810E94C413898389810F900F900F90AE
:101AB0000F90CF91DF910895DF93CF9300D000D0A6
:101AC00000D0CDB7DEB79B838A836C834D832E8392
:101AD00081E089838A819B81009711F419820BC070
:101AE0008A819B816C814D810E9434158A819B8102
:101AF0006E810E94230D898126960FB6F894DEBF71
:101B00000FBECDBFCF91DF910895DF93CF9300D06B
:101B100000D00F92CDB7DEB79B838A837D836C8321
:101B200081E089838A819B81009721F08C819D814E
:101B3000009781F4198213C0EC81FD8120818C8192
:101B40009D8101969D838C838A819B81622F0E9457
:101B5000230D8983EC81FD818081882369F7898148
:101B60000F900F900F900F900F90CF91DF910895ED
:101B7000DF93CF93CDB7DEB727970FB6F894DEBFCC
:101B80000FBECDBF9B838A836C834D833F832E839F
:101B900081E089838A819B81009721F08E819F81DA
:101BA000009711F419821BC08A819B816C814D8141
:101BB0000E94341589830EC0EE81FF8120818E81C1
:101BC0009F8101969F838E838A819B81622F0E94D1
:101BD000230D8983EE81FF818081882369F78981C4
:101BE00027960FB6F894DEBF0FBECDBFCF91DF9121
:101BF00008950F93DF93CF93CDB7DEB729970FB634
:101C0000F894DEBF0FBECDBF9C838B836D834E8364
:101C100038872F83098781E08A8319828B819C8191
:101C2000009711F41A8230C08985882F90E00896B9
:101C3000880F991F880F991F880F991F282F8B8154
:101C40009C81622F0E94EA0C8A83198212C08981CA
:101C5000282F30E08F819885FC01E20FF31F20814F
:101C60008B819C81622F0E94230D8A8389818F5FE3
:101C700089838981883058F38B819C816D814E8165
:101C800029850E945C0D8A838A8129960FB6F89473
:101C9000DEBF0FBECDBFCF91DF910F910895DF93CF
:101CA000CF9300D000D0CDB7DEB79A8389836B8302
:101CB0008B818823C1F08B819AE0692F0E94911A51
:101CC000282F89819A81622F0E944F0E8B819AE082
:101CD000692F0E94911A892F282F205D89819A816E
:101CE000622F0E94230D0F900F900F900F90CF91B5
:101CF000DF910895DF93CF93CDB7DEB727970FB667
:101D0000F894DEBF0FBECDBF9A8389836B834C836B
:101D10003E832D8389819A816B814C810E94341589
:101D20008D819E810097E1F08D819E812AE030E0D7
:101D3000B9010E949D1ACB01282F89819A81622FB7
:101D40000E944F0E8D819E812AE030E0B9010E94F1
:101D50009D1A282F205D89819A81622F0E94230D70
:101D600027960FB6F894DEBF0FBECDBFCF91DF919F
:101D70000895DF93CF93CDB7DEB7EC970FB6F89405
:101D8000DEBF0FBECDBF9CAF8BAF81E08AAF19AE77
:101D90008BAD9CAD009711F41AAEFFC18BAD9CAD1D
:101DA0000E94C5078AAF8BAD9CAD01960E94C50706
:101DB0008AAF19AE0FC08BAD9CAD9C012E5F3F4F1B
:101DC00089AD882F90E0820F931F0E94C50789ADCF
:101DD0008F5F89AF89AD883070F380E090E0A0E23A
:101DE000B2E48DAB9EABAFABB8AF6DA97EA98FA9A6
:101DF00098AD20E030E04AEF54E40E941F02DC017D
:101E0000CB0189AB9AABABABBCAB69A97AA98BA967
:101E10009CA920E030E040E85FE30E94790388233A
:101E20002CF481E090E098AB8FA73FC069A97AA914
:101E30008BA99CA920E03FEF4FE757E40E941903CC
:101E400018164CF56DA97EA98FA998AD20E030E059
:101E500040E251E40E941F02DC01CB01BC01CD0134
:101E60000E944900DC01CB0198AB8FA70FC088EC22
:101E700090E09EA78DA78DA59EA50197F1F79EA73F
:101E80008DA78FA598A9019798AB8FA78FA598A923
:101E9000009769F714C069A97AA98BA99CA90E9427
:101EA0004900DC01CB0198AB8FA78FA598A99CA70F
:101EB0008BA78BA59CA50197F1F79CA78BA78BAD52
:101EC0009CAD68E30E94D7108AAF80E090E0A0E864
:101ED000BFE38FA398A7A9A7BAA76FA178A589A5E3
:101EE0009AA520E030E04AEF54E40E941F02DC0192
:101EF000CB018BA39CA3ADA3BEA36BA17CA18DA1A1
:101F00009EA120E030E040E85FE30E94790388234F
:101F10002CF481E090E09AA389A33FC06BA17CA13F
:101F20008DA19EA120E03FEF4FE757E40E941903E7
:101F300018164CF56FA178A589A59AA520E030E088
:101F400040E251E40E941F02DC01CB01BC01CD0143
:101F50000E944900DC01CB019AA389A30FC088EC41
:101F600090E098A38F8F8F8D98A10197F1F798A398
:101F70008F8F89A19AA101979AA389A389A19AA178
:101F8000009769F714C06BA17CA18DA19EA10E944E
:101F90004900DC01CB019AA389A389A19AA19E8F54
:101FA0008D8F8D8D9E8D0197F1F79E8F8D8F8BADCF
:101FB0009CAD6CE00E94D7108AAF80E090E0A0E07A
:101FC000B0E4898F9A8FAB8FBC8F698D7A8D8B8DA2
:101FD0009C8D20E030E04AEF54E40E941F02DC01B7
:101FE000CB018D8B9E8BAF8BB88F6D897E898F894E
:101FF000988D20E030E040E85FE30E947903882379
:102000002CF481E090E09C8B8B8B3FC06D897E89A6
:102010008F89988D20E03FEF4FE757E40E94190326
:1020200018164CF5698D7A8D8B8D9C8D20E030E0F3
:1020300040E251E40E941F02DC01CB01BC01CD0152
:102040000E944900DC01CB019C8B8B8B0FC088EC7C
:1020500090E09A8B898B89899A890197F1F79A8BFD
:10206000898B8B899C8901979C8B8B8B8B899C8915
:10207000009769F714C06D897E898F89988D0E94B9
:102080004900DC01CB019C8B8B8B8B899C89988BC5
:102090008F878F8598890197F1F7988B8F878BAD04
:1020A0009CAD61E00E94D7108AAF80E090E0A0E094
:1020B000B0E48B879C87AD87BE876B857C858D85DB
:1020C0009E8520E030E04AEF54E40E941F02DC01CC
:1020D000CB018F839887A987BA876F817885898597
:1020E0009A8520E030E040E85FE30E94790388238E
:1020F0002CF481E090E09E838D833FC06F817885D2
:1021000089859A8520E03FEF4FE757E40E94190345
:1021100018164CF56B857C858D859E8520E030E01A
:1021200040E251E40E941F02DC01CB01BC01CD0161
:102130000E944900DC01CB019E838D830FC088EC97
:1021400090E09C838B838B819C810197F1F79C832A
:102150008B838D819E8101979E838D838D819E814E
:10216000009769F714C06F81788589859A850E94E8
:102170004900DC01CB019E838D838D819E819A83F2
:10218000898389819A810197F1F79A8389838BAD3D
:102190009CAD60E80E94D7108AAF8AADEC960FB66E
:1021A000F894DEBF0FBECDBFCF91DF910895DF93CE
:1021B000CF9300D000D00F92CDB7DEB79C838B8336
:1021C0006D8381E08A8319828B819C81009711F451
:1021D0001A8232C08B819C8160E00E948F068A83C4
:1021E000198222C08B819C819C012E5F3F4F898187
:1021F000882F90E0A901480F591F8D81282F30E0CA
:102200008981882F90E0B90102C0759567958A95FC
:10221000E2F7CB01282F2170CA01622F0E948F069E
:102220008A8389818F5F898389818830D8F28B8105
:102230009C810E945C148A838A810F900F900F907A
:102240000F900F90CF91DF910895DF93CF9300D03F
:1022500000D00F92CDB7DEB79C838B836D8381E076
:102260008A8319828B819C81009711F41A8232C073
:102270008B819C8161E00E948F068A83198222C033
:102280008B819C819C012E5F3F4F8981882F90E03C
:10229000A901480F591F8D81282F30E08981882F8F
:1022A00090E0B90102C0759567958A95E2F7CB0178
:1022B000282F2170CA01622F0E948F068A8389818C
:1022C0008F5F898389818830D8F28B819C810E94BD
:1022D0005C148A838A810F900F900F900F900F905B
:1022E000CF91DF910895DF93CF9300D000D000D03D
:1022F000CDB7DEB79B838A836C834D832E8381E0C9
:1023000089838A819B81009711F419820CC08A818C
:102310009B816C814D810E94F4148A819B816E8126
:102320000E9425118983898126960FB6F894DEBF15
:102330000FBECDBFCF91DF910895DF93CF9300D033
:1023400000D00F92CDB7DEB79B838A837D836C83E9
:1023500081E089838A819B81009721F08C819D8116
:10236000009781F4198213C0EC81FD8120818C815A
:102370009D8101969D838C838A819B81622F0E941F
:1023800025118983EC81FD818081882369F789810A
:102390000F900F900F900F900F90CF91DF910895B5
:1023A000DF93CF93CDB7DEB727970FB6F894DEBF94
:1023B0000FBECDBF9B838A836C834D833F832E8367
:1023C00081E089838A819B81009721F08E819F81A2
:1023D000009711F419821BC08A819B816C814D8109
:1023E0000E94F41489830EC0EE81FF8120818E81CA
:1023F0009F8101969F838E838A819B81622F0E9499
:1024000025118983EE81FF818081882369F7898185
:1024100027960FB6F894DEBF0FBECDBFCF91DF91E8
:1024200008950F93DF93CF93CDB7DEB729970FB6FB
:10243000F894DEBF0FBECDBF9C838B836D834E832C
:1024400038872F83098781E08A8319828B819C8159
:10245000009711F41A8230C08985882F90E0089681
:10246000880F991F880F991F880F991F282F8B811C
:102470009C81622F0E94D7108A83198212C08981A1
:10248000282F30E08F819885FC01E20FF31F208117
:102490008B819C81622F0E9425118A8389818F5FA5
:1024A00089838981883058F38B819C816D814E812D
:1024B00029850E9473118A838A8129960FB6F89420
:1024C000DEBF0FBECDBFCF91DF910F910895DF9397
:1024D000CF9300D000D0CDB7DEB78A837C836B83E7
:1024E00081E089838B819C81009711F4198225C03A
:1024F0008B819C816AE070E044E050E00E94E81A21
:102500008A81282F30E000D000D000D0EDB7FEB790
:1025100031968B819C819183808380E690E09383C8
:102520008283358324830E94EF1A8DB79EB7069667
:102530000FB6F8949EBF0FBE8DBF89810F900F908C
:102540000F900F90CF91DF910895DF93CF9300D03C
:1025500000D000D0CDB7DEB79C838B837E836D83A4
:1025600081E08A838D819E81009721F08B819C81FF
:10257000009711F41A8231C0EB81FC81108219821C
:1025800021C0EB81FC818081882F90E09C01220F8B
:10259000331FC901880F991F880F991F820F931F3E
:1025A000482F8981282F30E08D819E81FC01E20F28
:1025B000F31F8081840F8053EB81FC8180838981AC
:1025C0008F5F89838981282F30E08D819E81FC0176
:1025D000E20FF31F80818823A1F68A8126960FB629
:1025E000F894DEBF0FBECDBFCF91DF910895DF938A
:1025F000CF9300D000D00F92CDB7DEB79B838A83F4
:102600007D836C8381E089838C819D81009711F4A7
:10261000198224C08C819D816AE070E046E050E020
:102620000E94E81A00D000D000D0EDB7FEB7319676
:102630008C819D819183808380E690E09383828367
:102640008A819B81958384830E94EF1A8DB79EB700
:1026500006960FB6F8949EBF0FBE8DBF89810F906E
:102660000F900F900F900F90CF91DF910895DF930F
:10267000CF9300D000D00F92CDB7DEB79B838A8373
:102680007D836C8381E089838C819D81009711F427
:10269000198224C08C819D816AE070E04BE050E09B
:1026A0000E94E81A00D000D000D0EDB7FEB73196F6
:1026B0008C819D819183808380E690E093838283E7
:1026C0008A819B81958384830E94EF1A8DB79EB780
:1026D00006960FB6F8949EBF0FBE8DBF89810F90EE
:1026E0000F900F900F900F90CF91DF910895DF938F
:1026F000CF9300D000D0CDB7DEB79B838A836C83A5
:1027000081E089838A819B819C012E5F3F4F8C8170
:10271000482F4170C901642F0E948F0689838A81E6
:102720009B819C012D5F3F4F8C818695482F417086
:10273000C901642F0E948F0689838A819B819C0135
:102740002C5F3F4F8C8186958695482F4170C9013B
:10275000642F0E948F0689838A819B819C012B5F55
:102760003F4F8C81869586958695482F4170C9018B
:10277000642F0E948F06898389810F900F900F909C
:102780000F90CF91DF910895DF93CF93CDB7DEB750
:1027900061970FB6F894DEBF0FBECDBF998B888BC3
:1027A00081E08F8788899989019661E00E948F0670
:1027B0008F8780E090E0A0EAB0E48B879C87AD87AC
:1027C000BE876B857C858D859E8520E030E04AEF55
:1027D00054E40E941F02DC01CB018F839887A987F4
:1027E000BA876F81788589859A8520E030E040E856
:1027F0005FE30E94790388232CF481E090E09E83BC
:102800008D833FC06F81788589859A8520E03FEF71
:102810004FE757E40E94190318164CF56B857C8529
:102820008D859E8520E030E040E251E40E941F0249
:10283000DC01CB01BC01CD010E944900DC01CB01D0
:102840009E838D830FC088EC90E09C838B838B816B
:102850009C810197F1F79C838B838D819E810197E9
:102860009E838D838D819E81009769F714C06F814F
:10287000788589859A850E944900DC01CB019E8379
:102880008D838D819E819A83898389819A81019725
:10289000F1F79A83898388899989019660E00E947B
:1028A0008F068F878F8561960FB6F894DEBF0FBEB7
:1028B000CDBFCF91DF910895DF93CF93CDB7DEB732
:1028C00061970FB6F894DEBF0FBECDBF998B888B92
:1028D00081E08F8788899989019661E00E948F063F
:1028E0008F8780E090E0A0EAB0E48B879C87AD877B
:1028F000BE876B857C858D859E8520E030E04AEF24
:1029000054E40E941F02DC01CB018F839887A987C2
:10291000BA876F81788589859A8520E030E040E824
:102920005FE30E94790388232CF481E090E09E838A
:102930008D833FC06F81788589859A8520E03FEF40
:102940004FE757E40E94190318164CF56B857C85F8
:102950008D859E8520E030E040E251E40E941F0218
:10296000DC01CB01BC01CD010E944900DC01CB019F
:102970009E838D830FC088EC90E09C838B838B813A
:102980009C810197F1F79C838B838D819E810197B8
:102990009E838D838D819E81009769F714C06F811E
:1029A000788589859A850E944900DC01CB019E8348
:1029B0008D838D819E819A83898389819A810197F4
:1029C000F1F79A83898388899989019660E00E944A
:1029D0008F068F878F8561960FB6F894DEBF0FBE86
:1029E000CDBFCF91DF910895DF93CF93CDB7DEB701
:1029F00027970FB6F894DEBF0FBECDBF9B838A83A7
:102A00006C834D8381E089838D8181508D838C819E
:102A1000282F30E03F832E838E819F818130910566
:102A200031F02E813F812230310559F013C08D8164
:102A3000282F20588A819B81622F0E94D71089837A
:102A400009C08D81282F20548A819B81622F0E948A
:102A5000D7108983898127960FB6F894DEBF0FBE01
:102A6000CDBFCF91DF910895DF93CF93CDB7DEB780
:102A700027970FB6F894DEBF0FBECDBF9B838A8326
:102A80006C834D8381E089838D8181508D838C811E
:102A9000282F30E03F832E838E819F8181309105E6
:102AA00031F02E813F812230310559F013C08D81E4
:102AB000282F20588A819B81622F0E94EA0C8983EB
:102AC00009C08D81282F20548A819B81622F0E940A
:102AD000EA0C8983898127960FB6F894DEBF0FBE72
:102AE000CDBFCF91DF910895DF93CF9300D000D079
:102AF0000F92CDB7DEB79D838C8381E08B831A82E2
:102B000019828C819D81009711F41B8227C01A8243
:102B10000DC02C813D818A81882F90E0820F931F08
:102B20000E94C5078B838A818F5F8A838A81843064
:102B300080F3198210C08C819D819C012C5F3F4FD6
:102B40008981882F90E0820F931F0E94A3058B83B9
:102B500089818F5F89838981843068F38B810F90AD
:102B60000F900F900F900F90CF91DF910895DF930A
:102B7000CF93CDB7DEB769970FB6F894DEBF0FBE1F
:102B8000CDBF9D8B8C8B7F8B6E8B598F488F1A8A14
:102B9000E88DF98D1082198A188A1F861B8A8C8904
:102BA0009D89009721F08E899F89009711F41A8AD8
:102BB000CFC0198AC7C01F860EC02C893D898F855A
:102BC000882F90E0820F931F60E00E948F068A8B0F
:102BD0008F858F5F8F878F85843078F32C893D892F
:102BE0008989882F90E0820F931F61E00E948F06F1
:102BF0008A8B80E090E0A0E8BFE38B879C87AD875D
:102C0000BE876B857C858D859E8520E030E04AEF10
:102C100054E40E941F02DC01CB018F839887A987AF
:102C2000BA876F81788589859A8520E030E040E811
:102C30005FE30E94790388232CF481E090E09E8377
:102C40008D833FC06F81788589859A8520E03FEF2D
:102C50004FE757E40E94190318164CF56B857C85E5
:102C60008D859E8520E030E040E251E40E941F0205
:102C7000DC01CB01BC01CD010E944900DC01CB018C
:102C80009E838D830FC088EC90E09C838B838B8127
:102C90009C810197F1F79C838B838D819E810197A5
:102CA0009E838D838D819E81009769F714C06F810B
:102CB000788589859A850E944900DC01CB019E8335
:102CC0008D838D819E819A83898389819A810197E1
:102CD000F1F79A838983188A2FC08C899D899C017A
:102CE0002C5F3F4F8889882F90E0820F931F9E01B1
:102CF0002D5E3F4FB9010E9425078A8B8B89813059
:102D0000C1F48989482F50E08889282F30E0CA0112
:102D1000880F991F880F991F820F931FFC01ED5197
:102D2000FF4F8081EE89FF898083E88DF98D81E0F6
:102D3000808388898F5F888B8889843070F2898945
:102D40008F5F898B8989843008F435CF81E08A8B45
:102D50008A8969960FB6F894DEBF0FBECDBFCF91BA
:102D6000DF910895DF93CF9300D00F92CDB7DEB7F8
:102D70009B838A8381E089838A819B81009711F4F8
:102D8000198222C08A819B810E94C5078A819B810A
:102D900001960E94C5078A819B8102960E94C50701
:102DA0008A819B8103960E94C5078A819B81049634
:102DB0000E94C5078A819B8105960E94C5078A816A
:102DC0009B8106960E94C50789810F900F900F90F6
:102DD000CF91DF910895DF93CF9300D000D0CDB78E
:102DE000DEB79B838A836C8381E089838A819B81A0
:102DF000009729F48C818A3010F019828AC04A81A8
:102E00005B818C81882F90E0FC01E556FF4F80812B
:102E1000282F2170CA01622F0E948F068A819B8110
:102E2000AC014F5F5F4F8C81882F90E0FC01E5562D
:102E3000FF4F80818695282F2170CA01622F0E9442
:102E40008F068A819B81AC014E5F5F4F8C81882FFA
:102E500090E0FC01E556FF4F808186958695282FEE
:102E60002170CA01622F0E948F068A819B81AC016A
:102E70004D5F5F4F8C81882F90E0FC01E556FF4F3E
:102E80008081869586958695282F2170CA01622FAC
:102E90000E948F068A819B81AC014C5F5F4F8C81C1
:102EA000882F90E0FC01E556FF4F808182958F705E
:102EB000282F2170CA01622F0E948F068A819B8170
:102EC000AC014B5F5F4F8C81882F90E0FC01E55691
:102ED000FF4F8081829586958770282F2170CA01C7
:102EE000622F0E948F068A819B81AC014A5F5F4FEF
:102EF0008C81882F90E0FC01E556FF4F8081829500
:102F0000869586958370282F2170CA01622F0E94B2
:102F10008F0689810F900F900F900F90CF91DF91C6
:102F20000895DF93CF9300D00F92CDB7DEB79B8388
:102F30008A8381E089838A819B81009711F41982B9
:102F400009C08A819B810E94C5078A819B81019665
:102F50000E94C50789810F900F900F90CF91DF914C
:102F60000895DF93CF9300D00F92CDB7DEB79B8348
:102F70008A8381E089838A819B81009711F4198279
:102F80000BC08A819B8161E00E948F068A819B81B0
:102F9000019660E00E948F0689810F900F900F903C
:102FA000CF91DF910895DF93CF9300D00F92CDB7EB
:102FB000DEB79B838A8381E089838A819B81009726
:102FC00011F419820BC08A819B8160E00E948F06F8
:102FD0008A819B81019661E00E948F0689810F9012
:102FE0000F900F90CF91DF910895DF93CF9300D092
:102FF0000F92CDB7DEB79B838A8381E089838A8174
:103000009B81009711F419820BC08A819B8160E03B
:103010000E948F068A819B81019660E00E948F0644
:1030200089810F900F900F90CF91DF910895DF93DA
:10303000CF930F92CDB7DEB7198287EB90E00E9455
:103040008F0B89838FEA90E00E94741589830F901B
:10305000CF91DF910895DF93CF93CDB7DEB76D9712
:103060000FB6F894DEBF0FBECDBF1D8EF7C087EB45
:1030700090E023E630E061E043E00E94B80D80E09C
:1030800090E0A8E4B3E4898F9A8FAB8FBC8F698DF1
:103090007A8D8B8D9C8D20E030E04AEF54E40E94C5
:1030A0001F02DC01CB018D8B9E8BAF8BB88F6D899E
:1030B0007E898F89988D20E030E040E85FE30E94B0
:1030C000790388232CF481E090E09C8B8B8B3FC0AC
:1030D0006D897E898F89988D20E03FEF4FE757E417
:1030E0000E94190318164CF5698D7A8D8B8D9C8D75
:1030F00020E030E040E251E40E941F02DC01CB01FD
:10310000BC01CD010E944900DC01CB019C8B8B8B63
:103110000FC088EC90E09A8B898B89899A890197F6
:10312000F1F79A8B898B8B899C8901979C8B8B8B70
:103130008B899C89009769F714C06D897E898F8976
:10314000988D0E944900DC01CB019C8B8B8B8B8975
:103150009C89988B8F878F8598890197F1F7988B39
:103160008F8787EB90E02EE630E061E043E00E943D
:10317000B80D80E090E0A8ECB2E48B879C87AD8727
:10318000BE876B857C858D859E8520E030E04AEF8B
:1031900054E40E941F02DC01CB018F839887A9872A
:1031A000BA876F81788589859A8520E030E040E88C
:1031B0005FE30E94790388232CF481E090E09E83F2
:1031C0008D833FC06F81788589859A8520E03FEFA8
:1031D0004FE757E40E94190318164CF56B857C8560
:1031E0008D859E8520E030E040E251E40E941F0280
:1031F000DC01CB01BC01CD010E944900DC01CB0107
:103200009E838D830FC088EC90E09C838B838B81A1
:103210009C810197F1F79C838B838D819E8101971F
:103220009E838D838D819E81009769F714C06F8185
:10323000788589859A850E944900DC01CB019E83AF
:103240008D838D819E819A83898389819A8101975B
:10325000F1F79A8389838D8D8F5F8D8F8D8D83306C
:1032600008F405CF6D960FB6F894DEBF0FBECDBF44
:10327000CF91DF910895DF93CF93CDB7DEB70E9452
:10328000881A81E08093D1008FEA90E027E031E056
:1032900041E051E0B9010E94B715809101018823F6
:1032A00099F3809107018F3281F1809107018B3270
:1032B00061F1809107018D3241F1809107018A32DD
:1032C00021F18091F700882F90E09C01220F331F9D
:1032D000C901880F991F880F991F820F931F982F7C
:1032E00080910701890F8093F7008091F700282FC4
:1032F00030E087EB90E061E041E00E947A0E80913F
:10330000D2008F5F8093D20002C01092D1008091D2
:10331000D100813009F4B8CF8091D200382F8F5F6F
:103320008093D2002091070187EB90E061E0432F6A
:103330000E945C0D809107018093060187EB90E06D
:103340002AE730E062E041E00E94B80D81E080931E
:10335000D1008091D2008093F9008FEA90E027E0BD
:1033600031E041E051E0B9010E94B71580910101BF
:10337000882399F3809107018F32A9F18091070189
:103380008B3289F1809107018D3269F180910701BB
:103390008A3249F1809107018D3329F18091F8003B
:1033A000882F90E09C01220F331FC901880F991FBD
:1033B000880F991F820F931F982F80910701890F03
:1033C0008093F8004091F9008091F800282F30E0B8
:1033D00087EB90E061E00E947A0E8091D2008F5FCF
:1033E0008093D20002C01092D1008091D100813030
:1033F00009F4B3CF8091D200382F8F5F8093D20031
:103400002091070187EB90E061E0432F0E945C0D63
:10341000809106018B32D1F48091F700282F30E0A3
:103420008091F800882F90E0820F931F9093000105
:103430008093FF004091D2002091FF003091000165
:1034400087EB90E061E00E947A0E1BCF809106012D
:103450008D32E1F48091F700282F30E08091F80060
:10346000882F90E0A901481B590BCA0190930001D5
:103470008093FF004091D2002091FF003091000125
:1034800087EB90E061E00E947A0EFBCE809106010E
:103490008A3201F58091F700282F30E08091F80002
:1034A000882F90E0AC01249FC001259F900D349F90
:1034B000900D1124909300018093FF004091D20061
:1034C0002091FF003091000187EB90E061E00E94C5
:1034D0007A0ED7CE809106018F3209F0D2CE80913C
:1034E000F7009091F800692F0E94911A882F90E0C0
:1034F000909300018093FF004091D2002091FF0043
:103500003091000187EB90E061E00E947A0EB9CE25
:10351000DF93CF93CDB7DEB70E941718CF91DF911D
:103520000895991B79E004C0991F961708F0961B1F
:10353000881F7A95C9F780950895AA1BBB1B51E196
:1035400007C0AA1FBB1FA617B70710F0A61BB70B13
:10355000881F991F5A95A9F780959095BC01CD01B8
:1035600008952F923F924F925F926F927F928F9227
:103570009F92AF92BF92CF92DF92EF92FF920F9302
:103580001F93CF93DF93CDB7DEB7CA1BDB0B0FB60C
:10359000F894DEBF0FBECDBF09942A8839884888C9
:1035A0005F846E847D848C849B84AA84B984C8845F
:1035B000DF80EE80FD800C811B81AA81B981CE0F56
:1035C000D11D0FB6F894DEBF0FBECDBFED0108953B
:1035D000DC0101C06D9341505040E0F70895AEE02A
:1035E000B0E0E5EFFAE10C94BF1A0D891E8986E080
:1035F0008C831A8309838FEF9FE79E838D839E01BF
:10360000275E3F4FCE0101966F89788DA9010E94F8
:10361000131B2F813885020F131FF80110822E967D
:10362000E4E00C94DB1AABE0B0E0E9E1FBE10C94E0
:10363000B11A3C012B015A01FC01178216828381C9
:1036400081FD03C06FEF7FEFC6C19AE0892E1E0196
:103650000894211C311CF3012381F20123FD859183
:1036600023FF81912F01882309F4B2C1853239F4F7
:1036700023FD859123FF81912F01853229F490E06C
:10368000B3010E94061DE7CF982FFF24EE24992452
:10369000FFE1FF15D0F09B3269F09C3228F49032A4
:1036A00059F0933291F40EC09D3249F0903369F491
:1036B00041E024C052E0F52A84E0F82A28C098E0CE
:1036C000F92A25C0E0E1FE2A22C0F7FC29C0892F93
:1036D00080538A3070F4F6FE05C0989C902C11241B
:1036E000980E15C0E89CE02C1124E80EF0E2FF2AA9
:1036F0000EC09E3229F4F6FC6BC140E4F42A07C0E8
:103700009C3619F450E8F52A02C0983649F4F201C3
:1037100023FD959123FF91912F01992309F0B8CFB3
:10372000892F8554833018F08052833038F444E078
:1037300050E0A40EB51E5FE359830FC0933631F0FD
:10374000933779F0933509F056C020C0F501808198
:10375000898342E050E0A40EB51E610101E010E053
:1037600012C0F501C080D180F6FC03C06FEF7FEF7F
:1037700002C0692D70E042E050E0A40EB51EC60103
:103780000E94FB1C8C015FE7F52214C0F501C0808C
:10379000D180F6FC03C06FEF7FEF02C0692D70E0AF
:1037A00042E050E0A40EB51EC6010E94F01C8C0140
:1037B00050E8F52AF3FE07C01AC080E290E0B3019A
:1037C0000E94061DEA948E2D90E008171907A8F3B1
:1037D0000EC0F601F7FC8591F7FE81916F0190E034
:1037E000B3010E94061DE110EA940150104001153A
:1037F000110579F7EAC0943611F0993669F5F7FEAC
:1038000008C0F501208131814281538184E090E03C
:103810000AC0F501808191819C01442737FD4095C4
:10382000542F82E090E0A80EB91E9FE6F92257FFC0
:1038300009C050954095309521953F4F4F4F5F4FB0
:10384000E0E8FE2ACA01B901A1012AE030E00E94A5
:10385000321DD82ED21840C0953729F41F2D1F7E57
:103860002AE030E01DC01F2D197F9F3661F0903790
:1038700020F4983509F0ACC00FC0903739F0983774
:1038800009F0A6C004C028E030E00AC0106114FDB1
:10389000146020E130E004C014FD166020E132E045
:1038A00017FF08C0F501608171818281938144E036
:1038B00050E008C0F50180819181BC0180E090E07A
:1038C00042E050E0A40EB51EA1010E94321DD82E88
:1038D000D2188FE7F82EF122F6FE0BC05EEFF5222C
:1038E000D91438F4F4FE07C0F2FC05C08FEEF822BC
:1038F00002C01D2D01C0192DF4FE0DC0FE01ED0DFD
:10390000F11D8081803319F499EEF92208C01F5F00
:10391000F2FE05C003C08F2D867809F01F5F0F2DC2
:10392000F3FC14C0F0FE0FC01E1510F09D2C0BC050
:103930009D2C9E0C911A1E2D06C080E290E0B301D2
:103940000E94061D1F5F1E15C0F304C01E1510F453
:10395000E11A01C0EE2404FF0FC080E390E0B30140
:103960000E94061D02FF1DC001FD03C088E790E014
:103970000EC088E590E00BC0802F867891F001FFA3
:1039800002C08BE201C080E2F7FC8DE290E0B3015F
:103990000E94061D06C080E390E0B3010E94061D50
:1039A0009A94D914C0F3DA94F101ED0DF11D8081E0
:1039B00090E0B3010E94061DDD20A9F706C080E259
:1039C00090E0B3010E94061DEA94EE20C1F743CEB9
:1039D000F30166817781CB012B96E2E10C94CD1A3D
:1039E000FC010590615070400110D8F780959095CA
:1039F0008E0F9F1F0895FC016150704001900110CF
:103A0000D8F7809590958E0F9F1F08950F931F9361
:103A1000CF93DF938C01EB018B8181FF1BC082FF71
:103A20000DC02E813F818C819D812817390764F458
:103A3000E881F9810193F983E88306C0E885F98577
:103A4000802F0995892B31F48E819F8101969F8368
:103A50008E8302C00FEF1FEFC801DF91CF911F913E
:103A60000F910895FA01AA27283051F1203181F1F0
:103A7000E8946F936E7F6E5F7F4F8F4F9F4FAF4F76
:103A8000B1E03ED0B4E03CD0670F781F891F9A1F89
:103A9000A11D680F791F8A1F911DA11D6A0F711D3D
:103AA000811D911DA11D20D009F468943F912AE049
:103AB000269F11243019305D3193DEF6CF01089531
:103AC000462F4770405D4193B3E00FD0C9F7F6CF62
:103AD000462F4F70405D4A3318F0495D31FD40522A
:103AE000419302D0A9F7EACFB4E0A69597958795C0
:103AF00077956795BA95C9F700976105710508959F
:103B00009B01AC010A2E069457954795379527954A
:103B1000BA95C9F7620F731F841F951FA01D0895E2
:043B2000F894FFCF47
:103B240025690043616C63756C61746F72002020B9
:103B34002020202020202020200000000000000061
:103B44000000003A003700340031003B00380035F3
:103B540000320039003600330030003F065B4F6608
:103B64006D7D07FF6F3F065B4F666D7D07FF6F231B
:103B7400272B2F13171B1F31352125292D232B21EB
:103B840025292D3135393D3F065B4F666D7D07FF95
:103B94006F01013738392F3435362A3132332D232A
:103BA400303D2B0708092F0405062A0102032D23A3
:043BB400003D2B00A5
:00000001FF
