:100000000C942A000C94FD090C94270A0C94510AB4
:100010000C9447000C9447000C9447000C94470044
:100020000C9447000C9447000C9447000C94470034
:100030000C9447000C9447000C9447000C94470024
:100040000C947B0A0C9447000C9447000C944700D6
:100050000C94470011241FBECFE5D8E0DEBFCDBF12
:1000600011E0A0E6B0E0ECEAF7E402C005900D92E2
:10007000AE3DB107D9F711E0AEEDB1E001C01D9280
:10008000A33FB107E1F70E9480200C94D4230C9485
:100090000000EF92FF920F931F937B018C0120E0F1
:1000A00030E040E05FE40E94F50388238CF0C80153
:1000B000B70120E030E040E05FE40E94C1010E940F
:1000C00055049B01AC01205030404040504806C0D0
:1000D000C801B7010E9455049B01AC01B901CA01D6
:1000E0001F910F91FF90EF900895A0E0B0E0EBE733
:1000F000F0E00C94F520DC012B01FA019C91923088
:1001000008F439C1EB018881823008F433C194309E
:1001100069F4843009F02FC111969C91119789815F
:10012000981709F428C1A3E6B0E025C1843009F48A
:1001300021C18230A9F4923009F01DC19A01AD01AC
:1001400088E0EA010990AE01E90109929E0181501F
:10015000C1F7E201898111969C918923818308C1AD
:10016000923009F407C112962D903C901397EB0141
:100170008A819B811496AD90BD90CD90DC901797AD
:10018000EC80FD800E811F819101281B390BB90184
:1001900037FF04C066277727621B730B6032710537
:1001A0000CF061C0121613066CF537014801062EDB
:1001B00004C096948794779467940A94D2F721E0C8
:1001C00030E040E050E004C0220F331F441F551FB1
:1001D0006A95D2F721503040404050402E213F21B7
:1001E00040235123211531054105510521F021E01E
:1001F00030E040E050E079018A01E628F72808293C
:1002000019293CC0232BD1F1260E371E350146019A
:10021000062E04C096948794779467940A94D2F734
:1002200021E030E040E050E004C0220F331F441FC3
:10023000551F6A95D2F721503040404050402A2146
:100240003B214C215D21211531054105510521F04E
:1002500021E030E040E050E059016A01A628B728CB
:10026000C828D9280BC0821593052CF01C01AA249C
:10027000BB24650103C0EE24FF24870111969C91E5
:10028000D20111968C91981709F445C0992339F041
:10029000A80197012A193B094C095D0906C0A6016E
:1002A00095012E193F09400B510B57FD08C01182D3
:1002B0003382228224833583468357831DC081E0A5
:1002C00081833382228288279927DC01821B930B4A
:1002D000A40BB50B84839583A683B7830DC0220F2F
:1002E000331F441F551F24833583468357838281E0
:1002F000938101979383828324813581468157813D
:10030000DA01C9010197A109B1098F5F9F4FAF4F72
:10031000BF4328F30BC0918333822282EA0CFB1C7B
:100320000C1D1D1DE482F5820683178383E0808304
:10033000248135814681578157FF1AC0C901AA27F8
:1003400097FDA095BA2F81709070A070B0705695EF
:10035000479537952795822B932BA42BB52B848318
:100360009583A683B7838281938101969383828349
:10037000DF0101C0D201CD01CDB7DEB7E2E10C94BF
:100380001121A0E2B0E0E7ECF1E00C9401216983D7
:100390007A838B839C832D833E834F835887E9E048
:1003A000EE2EF12CEC0EFD1ECE010196B7010E943F
:1003B00046068E010F5E1F4FCE010596B8010E94C2
:1003C00046068A8991E089278A8BC701B801AE0168
:1003D000475E5F4F0E9475000E947105A096E6E09F
:1003E0000C941D21A0E2B0E0E8EFF1E00C940121B3
:1003F00069837A838B839C832D833E834F835887C5
:10040000F9E0EF2EF12CEC0EFD1ECE010196B701A6
:100410000E9446068E010F5E1F4FCE010596B80161
:100420000E944606C701B801AE01475E5F4F0E94B9
:1004300075000E947105A096E6E00C941D21A0E2D3
:10044000B0E0E5E2F2E00C94F52069837A838B83D7
:100450009C832D833E834F835887CE010196BE0136
:10046000675F7F4F0E944606CE010596BE016F5E14
:100470007F4F0E9446069985923088F089898230A4
:10048000C8F0943019F4823051F404C0843029F457
:10049000923081F483E690E0C6C0923049F420E0C7
:1004A0009A858A89981321E02A87CE010996BBC0D4
:1004B000823049F420E09A858A89981321E02A8BBA
:1004C000CE014196B0C02D843E844F8458886D88FB
:1004D0007E888F88988CEE24FF248701AA24BB2471
:1004E000650140E050E060E070E0E0E0F0E0C10174
:1004F00081709070892BE9F0E60CF71C081D191D1E
:100500009A01AB012A0D3B1D4C1D5D1D80E090E062
:10051000A0E0B0E0E614F7040805190520F481E036
:1005200090E0A0E0B0E0BA01A901480F591F6A1F8E
:100530007B1FAA0CBB1CCC1CDD1C97FE08C081E0F5
:1005400090E0A0E0B0E0A82AB92ACA2ADB2A3196B6
:10055000E032F10549F0660C771C881C991C569412
:10056000479437942794C3CFFA85EA892B893C892D
:100570008B859C85280F391F2E5F3F4F17C0CA01FE
:1005800081709070892B61F016950795F794E79428
:1005900080E090E0A0E0B0E8E82AF92A0A2B1B2BC3
:1005A00076956795579547952F5F3F4F77FDE7CF36
:1005B0000CC0440F551F661F771F17FD4160EE0CDE
:1005C000FF1C001F111F21503040403090E05907A0
:1005D00090E0690790E4790760F32B8F3C8FDB0193
:1005E000CA018F779070A070B07080349105A1051A
:1005F000B10561F447FD0AC0E114F10401051105DC
:1006000029F0405C5F4F6F4F7F4F40781A8EFE1786
:1006100011F081E08A8F4D8F5E8F6F8F78A383E01A
:10062000898FCE0149960E947105A096E2E10C9453
:100630001121A8E1B0E0EFE1F3E00C94FD20698323
:100640007A838B839C832D833E834F835887B9E0C5
:10065000EB2EF12CEC0EFD1ECE010196B7010E948F
:1006600046068E010F5E1F4FCE010596B8010E940F
:1006700046062985223008F47EC03989323010F4CC
:10068000B8017CC08A859A8989278A87243011F02D
:10069000223031F4231709F06EC063E670E06EC0BB
:1006A000343039F41D861E861F86188A1C861B86E8
:1006B00004C0323021F484E08987B7015FC02B8504
:1006C0003C858B899C89281B390B3C872B87ED84C3
:1006D000FE840F851889AD88BE88CF88D88CEA142F
:1006E000FB040C051D0540F4EE0CFF1C001F111F40
:1006F000215030403C872B8720E030E040E050E044
:1007000080E090E0A0E0B0E460E070E0EA14FB0478
:100710000C051D0540F0282B392B4A2B5B2BEA18C2
:10072000FB080C091D09B695A79597958795EE0CC2
:10073000FF1C001F111F6F5F7F4F6F31710531F775
:10074000DA01C9018F779070A070B0708034910584
:10075000A105B10561F427FD0AC0E114F10401050A
:10076000110529F0205C3F4F4F4F5F4F20782D87B8
:100770003E874F87588BBE01675F7F4FCB010E943A
:1007800071056896EAE00C941921A8E1B0E0EBEC61
:10079000F3E00C94012169837A838B839C832D83FE
:1007A0003E834F83588789E0E82EF12CEC0EFD1E26
:1007B000CE010196B7010E9446068E010F5E1F4FC3
:1007C000CE010596B8010E9446068985823040F028
:1007D0008989823028F0C701B8010E94BE0601C095
:1007E0008FEF6896E6E00C941D21A8E1B0E0EBEFF6
:1007F000F3E00C94012169837A838B839C832D839E
:100800003E834F83588789E0E82EF12CEC0EFD1EC5
:10081000CE010196B7010E9446068E010F5E1F4F62
:10082000CE010596B8010E9446068985823040F0C7
:100830008989823028F0C701B8010E94BE0601C034
:100840008FEF6896E6E00C941D21A8E1B0E0EBE2A2
:10085000F4E00C94012169837A838B839C832D833C
:100860003E834F83588789E0E82EF12CEC0EFD1E65
:10087000CE010196B7010E9446068E010F5E1F4F02
:10088000CE010596B8010E9446068985823040F067
:100890008989823028F0C701B8010E94BE0601C0D4
:1008A00081E06896E6E00C941D21ACE0B0E0EBE559
:1008B000F4E00C94052169837A838B839C83CE01B9
:1008C0000196BE016B5F7F4F0E9446068D8182308C
:1008D00061F1823050F1843021F48E81882351F10E
:1008E0002EC02F81388537FD20C06E812F31310514
:1008F0001CF06623F9F023C08EE190E0821B930B7D
:1009000029853A854B855C8504C056954795379572
:1009100027958A95D2F76623B1F05095409530958A
:1009200021953F4F4F4F5F4F0EC020E030E040E039
:1009300050E009C02FEF3FEF4FEF5FE704C020E02A
:1009400030E040E050E8B901CA012C96E2E00C9496
:100950002121A8E0B0E0EFEAF4E00C94FD207B0157
:100960008C01611571058105910519F482E0898377
:1009700060C083E089838EE1C82ED12CDC82CB82DB
:10098000ED82FE820F831887C801B7010E942205FD
:10099000FC013197F7FF3BC0222733272E1B3F0B6B
:1009A00057016801022E04C0D694C794B794A79447
:1009B0000A94D2F740E050E060E070E081E090E01F
:1009C000A0E0B0E004C0880F991FAA1FBB1F2A95A2
:1009D000D2F70197A109B1098E219F21A023B1234C
:1009E0000097A105B10521F041E050E060E070E022
:1009F0004A295B296C297D294D835E836F83788723
:100A00008EE190E08E1B9F0B9C838B8312C03097EE
:100A100081F00E2E04C0EE0CFF1C001F111F0A9463
:100A2000D2F7ED82FE820F831887CE1ADF0ADC82AE
:100A3000CB821A82CE0101960E9471052896EAE0C7
:100A40000C941921EF92FF920F931F937B018C015D
:100A500080E0E81680E0F80681E0080780E01807EB
:100A600088F48FEFE816F1040105110531F028F044
:100A700088E090E0A0E0B0E017C080E090E0A0E067
:100A8000B0E012C080E0E81680E0F80680E00807D9
:100A900081E0180728F088E190E0A0E0B0E004C011
:100AA00080E190E0A0E0B0E020E230E040E050E003
:100AB000281B390B4A0B5B0B04C016950795F7945E
:100AC000E7948A95D2F7F701E559FF4F8081281BFB
:100AD000310941095109C9011F910F91FF90EF9010
:100AE0000895DF92EF92FF920F931F93FC01E48031
:100AF000F58006811781D1808081823048F480E0C2
:100B000090E0A0E1B0E0E82AF92A0A2B1B2BA5C04F
:100B1000843009F49FC0823021F4EE24FF24870141
:100B200005C0E114F1040105110519F4E0E0F0E05D
:100B300096C0628173819FEF623879070CF05BC0C9
:100B400022E83FEF261B370B2A3131052CF020E03D
:100B500030E040E050E02AC0B801A701022E04C0F6
:100B600076956795579547950A94D2F781E090E07E
:100B7000A0E0B0E004C0880F991FAA1FBB1F2A95F0
:100B8000D2F70197A109B1098E219F21A023B1239A
:100B90000097A105B10521F081E090E0A0E0B0E070
:100BA0009A01AB01282B392B4A2B5B2BDA01C901A7
:100BB0008F779070A070B07080349105A105B10559
:100BC00039F427FF09C0205C3F4F4F4F5F4F04C0EF
:100BD000215C3F4F4F4F5F4FE0E0F0E02030A0E05E
:100BE0003A07A0E04A07A0E45A0710F0E1E0F0E07D
:100BF00079018A0127C06038710564F5FB01E1586D
:100C0000FF4FD801C7018F779070A070B07080340B
:100C10009105A105B10539F4E7FE0DC080E490E02F
:100C2000A0E0B0E004C08FE390E0A0E0B0E0E80E08
:100C3000F91E0A1F1B1F17FF05C016950795F7948D
:100C4000E794319687E016950795F794E7948A958F
:100C5000D1F705C0EE24FF248701EFEFF0E06E2FFF
:100C6000679566276795902F9F77D794DD24D79453
:100C70008E2F8695492F462B582F5D29B701CA0123
:100C80001F910F91FF90EF90DF900895FC01DB0121
:100C9000408151812281622F6F7770E0221F2227CD
:100CA000221F9381892F880F822B282F30E0991FD4
:100CB0009927991F11969C93119721153105A9F534
:100CC000411551056105710511F482E037C082E8D4
:100CD0009FEF13969C938E9312979A01AB0167E056
:100CE000220F331F441F551F6A95D1F783E08C9361
:100CF0000DC0220F331F441F551F12968D919C91DA
:100D00001397019713969C938E931297203080E04F
:100D1000380780E0480780E4580758F314962D936D
:100D20003D934D935C93179708952F3F310579F4C8
:100D3000411551056105710519F484E08C930895FE
:100D400064FF03C081E08C9312C01C9210C02F5727
:100D5000304013963C932E93129783E08C9387E058
:100D6000440F551F661F771F8A95D1F7706414963C
:100D70004D935D936D937C93179708951F93DC01BA
:100D8000FB019C91923008F447C08081823008F4C6
:100D900043C0943051F411961C91843099F58181AF
:100DA000682F70E0611B71093FC0843021F09230E0
:100DB00031F48230B9F18181882389F12DC01196F7
:100DC0001C9111978230F1F081811817D9F4129695
:100DD0002D913C911397828193818217930794F010
:100DE00028173907BCF014968D919D910D90BC91F8
:100DF000A02D2481358146815781281739074A075C
:100E00005B0718F4112341F00AC082179307A40767
:100E1000B50740F4112319F061E070E005C06FEFF1
:100E20007FEF02C060E070E0CB011F910895DF9377
:100E3000CF9300D00F92CDB7DEB79B838A83198200
:100E40008A819B81009711F419821EC08A819B813F
:100E50000E94130889838A819B810E940F098983DC
:100E60008A819B810E94600889838A819B810E947C
:100E7000F30889838A819B810E94B60989838A81CC
:100E80009B810E94B107898389810F900F900F90F9
:100E9000CF91DF910895DF93CF93CDB7DEB7AAE569
:100EA000B0E0EAE5F0E0808180648C938091DE011F
:100EB0009091DF01009729F0E091DE01F091DF01D0
:100EC0000995CF91DF910895DF93CF93CDB7DEB72A
:100ED000AAE5B0E0EAE5F0E0808180688C9380913B
:100EE000E0019091E101009729F0E091E001F0919B
:100EF000E1010995CF91DF910895DF93CF93CDB7AD
:100F0000DEB7AAE5B0E0EAE5F0E0808180628C938C
:100F10008091E2019091E301009729F0E091E201D4
:100F2000F091E3010995CF91DF910895DF93CF937D
:100F300000D00F92CDB7DEB79B838A8319828A8156
:100F40009B81009711F4198205C08A819B810E94C0
:100F50001308898389810F900F900F90CF91DF91B3
:100F60000895DF93CF9300D000D00F92CDB7DEB7B6
:100F70009B838A8319828A819B81009711F419824D
:100F800049C0EA81FB818481282F30E03D832C8396
:100F90008C819D8181309105D1F02C813D81223061
:100FA000310531F18C819D81009799F5AFE5B0E075
:100FB000EFE5F0E0808180688C93ABE5B0E0EBE595
:100FC000F0E0808180648C9381E0898323C0AFE569
:100FD000B0E0EFE5F0E0808180688C93ABE5B0E0B5
:100FE000EBE5F0E0808180688C9381E0898312C01A
:100FF000AFE5B0E0EFE5F0E0808180688C93ABE591
:10100000B0E0EBE5F0E0808180628C9381E0898341
:1010100001C0198289810F900F900F900F900F904F
:10102000CF91DF910895DF93CF9300D000D00F923E
:10103000CDB7DEB79B838A8319828A819B81009713
:1010400011F4198234C0EA81FB818481282F30E0B9
:101050003D832C838C819D818130910599F02C8179
:101060003D8122303105C1F08C819D810097F1F4E2
:10107000ABE5B0E0EBE5F0E080818F7B8C9381E025
:10108000898315C0ABE5B0E0EBE5F0E080818F77B8
:101090008C9381E089830BC0ABE5B0E0EBE5F0E039
:1010A00080818F7D8C9381E0898301C01982898141
:1010B0000F900F900F900F900F90CF91DF910895A8
:1010C000DF93CF9300D000D00F92CDB7DEB79B83D4
:1010D0008A8319828A819B81009711F419827AC0D0
:1010E000EA81FB818481282F30E03D832C838C8131
:1010F0009D818130910571F12C813D812230310536
:1011000009F44BC08C819D81009709F062C0EA818F
:10111000FB818381882341F4A5E5B0E0E5E5F0E0BB
:10112000808182608C9313C0EA81FB81838181304E
:1011300071F4A5E5B0E0E5E5F0E0808181608C9395
:10114000A5E5B0E0E5E5F0E0808182608C9381E088
:10115000898340C0EA81FB818381882341F4A5E52E
:10116000B0E0E5E5F0E0808188608C9313C0EA810F
:10117000FB818381813071F4A5E5B0E0E5E5F0E025
:10118000808184608C93A5E5B0E0E5E5F0E08081A6
:1011900088608C9381E089831DC0EA81FB81838113
:1011A000882341F4A4E5B0E0E4E5F0E080818F7BA2
:1011B0008C930CC0EA81FB818381813039F4A4E5F2
:1011C000B0E0E4E5F0E0808180648C9381E0898385
:1011D00001C0198289810F900F900F900F900F908E
:1011E000CF91DF910895DF93CF9300D00F92CDB7C9
:1011F000DEB79B838A8319828A819B81009711F4D1
:10120000198206C08A819B8102960E94F80D89830B
:1012100089810F900F900F90CF91DF910895DF9308
:10122000CF9300D000D00F92CDB7DEB79B838A83D7
:1012300019828A819B81009711F4198234C0EA8156
:10124000FB818481282F30E03D832C838C819D811C
:101250008130910599F02C813D8122303105C1F01A
:101260008C819D810097F1F4AAE5B0E0EAE5F0E019
:10127000808180648C9381E0898315C0AAE5B0E009
:10128000EAE5F0E0808180688C9381E089830BC07F
:10129000AAE5B0E0EAE5F0E0808180628C9381E02D
:1012A000898301C0198289810F900F900F900F9050
:1012B0000F90CF91DF910895DF93CF9300D00F92DD
:1012C000CDB7DEB79B838A8319828A819B81009781
:1012D00011F4198208C08A819B819093DF01809369
:1012E000DE0181E0898389810F900F900F90CF916B
:1012F000DF910895DF93CF9300D00F92CDB7DEB783
:101300009B838A8319828A819B81009711F41982B9
:1013100008C08A819B819093E1018093E00181E084
:10132000898389810F900F900F90CF91DF9108955D
:10133000DF93CF9300D00F92CDB7DEB79B838A8324
:1013400019828A819B81009711F4198208C08A81D1
:101350009B819093E3018093E20181E089838981FD
:101360000F900F900F90CF91DF910895DF93CF935F
:1013700000D000D00F92CDB7DEB79B838A8319824D
:101380008A819B81009711F419822EC0EA81FB812A
:101390008481282F30E03D832C838C819D81813096
:1013A000910589F02C813D8122303105A1F08C819D
:1013B0009D810097C1F4EA81FB81808191810E9427
:1013C0005C09898311C0EA81FB81808191810E943F
:1013D0007A09898309C0EA81FB81808191810E9419
:1013E0009809898301C0198289810F900F900F900D
:1013F0000F900F90CF91DF9108951F920F920FB62B
:101400000F9211242F933F934F935F936F937F938A
:101410008F939F93AF93BF93EF93FF93DF93CF93FC
:10142000CDB7DEB70E944B07CF91DF91FF91EF91CF
:10143000BF91AF919F918F917F916F915F914F91EC
:101440003F912F910F900FBE0F901F9018951F92F4
:101450000F920FB60F9211242F933F934F935F93E8
:101460006F937F938F939F93AF93BF93EF93FF936C
:10147000DF93CF93CDB7DEB70E946407CF91DF91A2
:10148000FF91EF91BF91AF919F918F917F916F915C
:101490005F914F913F912F910F900FBE0F901F9032
:1014A00018951F920F920FB60F9211242F933F930E
:1014B0004F935F936F937F938F939F93AF93BF935C
:1014C000EF93FF93DF93CF93CDB7DEB70E947D07F5
:1014D000CF91DF91FF91EF91BF91AF919F918F914C
:1014E0007F916F915F914F913F912F910F900FBE20
:1014F0000F901F9018951F920F920FB60F92112404
:101500002F933F934F935F936F937F938F939F930B
:10151000AF93BF93EF93FF93DF93CF93CDB7DEB736
:101520000E94190DCF91DF91FF91EF91BF91AF9183
:101530009F918F917F916F915F914F913F912F91EB
:101540000F900FBE0F901F901895DF93CF9300D090
:1015500000D0CDB7DEB79C838B831A828B819C81B0
:10156000009711F41A8258C0A6E2B0E0E6E2F0E07B
:1015700080818F778C93A6E2B0E0E6E2F0E0908184
:10158000EB81FC818281892B8C93EB81FC818381AF
:101590008983A7E2B0E0E7E2F0E08081807E8C936F
:1015A000A7E2B0E0E7E2F0E090818981892B8C939B
:1015B000EB81FC8183810E944F0CAFE5B0E0EFE549
:1015C000F0E0808180688C93A6E2B0E0E6E2F0E093
:1015D000808188608C93EB81FC81808191819093E4
:1015E000E5018093E4018B819C810E94CF0CA7E2EE
:1015F000B0E0E7E2F0E0808180648C93A7E2B0E0A5
:10160000E7E2F0E080818F778C93A6E2B0E0E6E23B
:10161000F0E0808180688C938A810F900F900F900A
:101620000F90CF91DF910895DF93CF9300D00F9269
:10163000CDB7DEB79B838A8319828A819B8100970D
:1016400011F419820EC0A6E2B0E0E6E2F0E080817B
:101650008F778C93A6E2B0E0E6E2F0E08081877FAE
:101660008C9389810F900F900F90CF91DF91089507
:10167000DF93CF9300D000D0CDB7DEB79B838A83B2
:101680006C8319828A819B81009711F4198212C0A0
:10169000A7E2B0E0E7E2F0E08081807E8C93A7E2F1
:1016A000B0E0E7E2F0E090818C81892B8C938C8113
:1016B0000E944F0C89810F900F900F900F90CF9147
:1016C000DF910895DF93CF9300D00F92CDB7DEB7AF
:1016D0009B838A8319828A819B81009711F41982E6
:1016E00007C0A6E2B0E0E6E2F0E0808180648C937F
:1016F00089810F900F900F90CF91DF910895DF9324
:10170000CF9300D000D000D0CDB7DEB79B838A83C3
:101710007D836C8319828A819B81009731F48C814F
:101720009D81009711F4198214C0E6E2F0E08081F7
:101730008295869586958370882F90E08170907051
:101740001E82009711F481E08E83EC81FD818E81F1
:101750008083898126960FB6F894DEBF0FBECDBF79
:10176000CF91DF910895DF93CF93CDB7DEB7279761
:101770000FB6F894DEBF0FBECDBF9D838C837F83F1
:101780006E831B828C819D81009731F48E819F81B5
:10179000009711F41B8245C0EC81FD818481827029
:1017A0008823F9F4E4E2F0E08081882F90E09A83C6
:1017B0008983E5E2F0E08081882F90E0982F8827E8
:1017C000EE81FF8191838083EE81FF8120813181D1
:1017D00089819A81820F931FEE81FF81918380839B
:1017E00020C0EC81FD81848182708823D1F0E5E204
:1017F000F0E08081882F90E0382F2227E4E2F0E0AB
:101800008081882F90E0820F931F082E892F000C73
:10181000881F990B000C881F991FEE81FF8191830F
:1018200080838B8127960FB6F894DEBF0FBECDBFA5
:10183000CF91DF910895DF93CF9300D000D000D0F7
:10184000CDB7DEB79B838A836C835E834D83198219
:101850008A819B81009731F48D819E81009711F4DC
:10186000198213C08A819B816C810E94380B898305
:101870008A819B810E94620B89838A819B812D8151
:101880003E81B9010E94B30B8983898126960FB6E8
:10189000F894DEBF0FBECDBFCF91DF910895DF93E7
:1018A000CF9300D00F92CDB7DEB789838981282FDF
:1018B00030E03B832A838A819B818330910509F440
:1018C00041C02A813B81243031057CF48A819B818F
:1018D0008130910539F12A813B812230310554F55F
:1018E0008A819B810097B1F054C02A813B812530C9
:1018F0003105C1F18A819B81853091055CF12A8196
:101900003B8126303105B1F18A819B818730910579
:10191000C9F13FC0AAE3B0E0EAE3F0E080818E7F46
:101920008C9337C0AAE3B0E0EAE3F0E080818D7FDA
:101930008C932FC0AAE3B0E0EAE3F0E080818B7FD4
:101940008C9327C0AAE3B0E0EAE3F0E08081877FD0
:101950008C931FC0AAE3B0E0EAE3F0E080818F7EC1
:101960008C9317C0AAE3B0E0EAE3F0E080818F7DBA
:101970008C930FC0AAE3B0E0EAE3F0E080818F7BB4
:101980008C9307C0AAE3B0E0EAE3F0E080818F77B0
:101990008C930F900F900F90CF91DF910895DF936C
:1019A000CF9300D0CDB7DEB79A838983E981FA81DE
:1019B00084818270882341F4A7E2B0E0E7E2F0E09E
:1019C00080818F7D8C930DC0E981FA818481827042
:1019D000882339F0A7E2B0E0E7E2F0E0808180629E
:1019E0008C930F900F90CF91DF910895DF93CF9359
:1019F00000D000D0CDB7DEB79B838A836C83198279
:101A00008A819B81009711F419820BC08A819B8186
:101A10006C810E94380B89838A819B810E94620BB2
:101A2000898389810F900F900F900F90CF91DF9154
:101A30000895DF93CF93CDB7DEB7A6E2B0E0E6E23C
:101A4000F0E0808180618C938091E4019091E501C8
:101A5000009729F0E091E401F091E5010995CF911B
:101A6000DF910895DF93CF93CDB7DEB763970FB6BD
:101A7000F894DEBF0FBECDBF888B698B81E08F8766
:101A8000ECE3F0E08081E7E5F0E08081882F90E0F2
:101A9000817090708823B9F7EFE3F0E01082EEE3F5
:101AA000F0E088898083EDE3F0E089898083ECE3CE
:101AB000F0E084E08083ECE3F0E086E08083ECE318
:101AC000F0E0808180E090E0A0E2B1E48B879C8729
:101AD000AD87BE876B857C858D859E8520E030E057
:101AE0004AEF54E40E941F02DC01CB018F839887E8
:101AF000A987BA876F81788589859A8520E030E04B
:101B000040E85FE30E94250488232CF481E090E004
:101B10009E838D833FC06F81788589859A8520E07B
:101B20003FEF4FE757E40E94C50318164CF56B854D
:101B30007C858D859E8520E030E040E251E40E9466
:101B40001F02DC01CB01BC01CD010E944900DC0178
:101B5000CB019E838D830FC088EC90E09C838B83A8
:101B60008B819C810197F1F79C838B838D819E8172
:101B700001979E838D838D819E81009769F714C0A4
:101B80006F81788589859A850E944900DC01CB01A7
:101B90009E838D838D819E819A83898389819A8199
:101BA0000197F1F79A8389838F8563960FB6F8942E
:101BB000DEBF0FBECDBFCF91DF910895DF93CF93EE
:101BC00000D000D00F92CDB7DEB79B838A837D8390
:101BD0006C8319828C819D81009709F41982898117
:101BE0000F900F900F900F900F90CF91DF9108956D
:101BF000DF93CF9300D000D00F92CDB7DEB79B8399
:101C00008A8381E089838A819B81009759F0EA81E8
:101C1000FB818081869586958770882F90E088303B
:101C2000910514F0198275C0EA81FB81808182954B
:101C3000869587708170282F30E03D832C838C81BE
:101C40009D810097B1F12C813D812130310509F052
:101C500060C0EA81FB8180818370882F90E0880FCB
:101C6000991FFC01E559FE4FA081B181EA81FB81FA
:101C700080818370882F90E0880F991FFC01E559BF
:101C8000FE4F0190F081E02D8081482FEA81FB8199
:101C90008081869586958770282F30E081E090E0DE
:101CA000022E02C0880F991F0A94E2F7842B8C93AE
:101CB00030C0EA81FB8180818370882F90E0880F9B
:101CC000991FFC01E559FE4FA081B181EA81FB819A
:101CD00080818370882F90E0880F991FFC01E5595F
:101CE000FE4F0190F081E02D8081482FEA81FB8139
:101CF0008081869586958770282F30E081E090E07E
:101D0000022E02C0880F991F0A94E2F7809584235F
:101D10008C9389810F900F900F900F900F90CF911F
:101D2000DF910895DF93CF9300D000D00F92CDB70D
:101D3000DEB79B838A837D836C8381E089838A817C
:101D40009B81009779F08C819D81009759F0EA8101
:101D5000FB818081869586958770882F90E08830FA
:101D6000910514F0198227C0EA81FB818081829558
:101D7000869587708170882F90E0880F991FFC01ED
:101D8000E559FE4F0190F081E02D8081282F30E051
:101D9000EA81FB818081869586958770882F90E007
:101DA000A90102C0559547958A95E2F7CA0181704D
:101DB000EC81FD81808389810F900F900F900F90AF
:101DC0000F90CF91DF910895DF93CF9300D000D093
:101DD00000D0CDB7DEB79B838A836C8381E0898393
:101DE0008A819B81009759F0EA81FB8180818695E9
:101DF00086958770882F90E08830910514F01982BD
:101E00006FC08C81282F30E03E832D838D819E8191
:101E10000097B1F12D813E812130310509F060C07C
:101E2000EA81FB8180818370882F90E0880F991F61
:101E3000FC01ED58FE4FA081B181EA81FB818081D8
:101E40008370882F90E0880F991FFC01ED58FE4F9A
:101E50000190F081E02D8081482FEA81FB81808113
:101E6000869586958770282F30E081E090E0022EDD
:101E700002C0880F991F0A94E2F7842B8C9330C01C
:101E8000EA81FB8180818370882F90E0880F991F01
:101E9000FC01ED58FE4FA081B181EA81FB81808178
:101EA0008370882F90E0880F991FFC01ED58FE4F3A
:101EB0000190F081E02D8081482FEA81FB818081B3
:101EC000869586958770282F30E081E090E0022E7D
:101ED00002C0880F991F0A94E2F7809584238C939F
:101EE000898126960FB6F894DEBF0FBECDBFCF9185
:101EF000DF910895DF93CF9300D000D00F92CDB73C
:101F0000DEB79B838A837D836C8381E089838A81AA
:101F10009B81009779F08C819D81009759F0EA812F
:101F2000FB818081869586958770882F90E0883028
:101F3000910514F0198224C0EA81FB8180818370AD
:101F4000882F90E0880F991FFC01E558FE4F019003
:101F5000F081E02D8081282F30E0EA81FB818081B3
:101F6000869586958770882F90E0A90102C05595C7
:101F700047958A95E2F7CA018170EC81FD818083E3
:101F800089810F900F900F900F900F90CF91DF915C
:101F90000895DF93CF9300D00F92CDB7DEB79B8328
:101FA0008A8381E089838A819B81009759F0EA8145
:101FB000FB818081869586958770882F90E0883098
:101FC000910514F019822FC0EA81FB818081837012
:101FD000882F90E0880F991FFC01ED58FE4FA081DB
:101FE000B181EA81FB8180818370882F90E0880F26
:101FF000991FFC01ED58FE4F0190F081E02D80818A
:10200000482FEA81FB818081869586958770282FED
:1020100030E081E090E0022E02C0880F991F0A9400
:10202000E2F784278C9389810F900F900F90CF91C6
:10203000DF910895DF93CF9300D00F92CDB7DEB735
:102040009B838A8381E089838A819B81009711F435
:10205000198214C08A819B810E94F80D8983EA81CC
:10206000FB81808182958695869583708170282F6B
:102070008A819B81622F0E94E40E898389810F905F
:102080000F900F90CF91DF910895DF93CF9300D001
:102090000F92CDB7DEB78A836B8381E089838A8113
:1020A000843010F019820DC08A81882F90E0880F4B
:1020B000991FFC01E559FE4F0190F081E02D8B81C5
:1020C000808389810F900F900F90CF91DF910895B9
:1020D000DF93CF9300D000D0CDB7DEB78A837C8367
:1020E0006B8381E089838B819C81009729F48A81AD
:1020F000843010F019820FC08A81882F90E0880FF9
:10210000991FFC01E559FE4F0190F081E02D80817F
:10211000EB81FC81808389810F900F900F900F904D
:10212000CF91DF910895DF93CF9300D00F92CDB779
:10213000DEB78A836B8381E089838A81843010F0E3
:1021400019820DC08A81882F90E0880F991FFC01A9
:10215000ED58FE4F0190F081E02D8B8180838981C5
:102160000F900F900F90CF91DF910895DF93CF9351
:1021700000D000D0CDB7DEB78A837C836B8381E04B
:1021800089838B819C81009729F48A81843010F0A7
:1021900019820FC08A81882F90E0880F991FFC0157
:1021A000ED58FE4F0190F081E02D8081EB81FC81A4
:1021B000808389810F900F900F900F90CF91DF91C6
:1021C0000895DF93CF9300D0CDB7DEB78A8381E047
:1021D00089838A81843010F0198218C08A81882FFF
:1021E00090E0880F991FFC01ED58FE4FA081B1814E
:1021F0008A81882F90E0880F991FFC01ED58FE4FCF
:102200000190F081E02D808180958C9389810F90E1
:102210000F90CF91DF910895DF93CF9300D000D03E
:10222000CDB7DEB79C838B8381E089838B819C81D2
:10223000009711F4198234C0EB81FC8180818F708A
:10224000282F2370EB81FC818081982F92959F70BD
:102250009770EB81FC818081382F331F3327331F28
:1022600023708A818C7F822B8A83892F8770982F95
:10227000990F990F8A81837E892B8A838A81806254
:102280008A83832F8170982F9295990F990F907C54
:102290008A818F7B892B8A83CE0102960E941A1035
:1022A00089810F900F900F900F90CF91DF9108953B
:1022B000DF93CF9300D000D0CDB7DEB79C838B8364
:1022C00081E089838B819C81009711F4198235C04C
:1022D000EB81FC8180818F70282F2370EB81FC8142
:1022E0008081982F92959F709770EB81FC818081FF
:1022F000382F331F3327331F23708A818C7F822B23
:102300008A83892F8770982F990F990F8A81837EEE
:10231000892B8A838A8180628A83832F8170982F98
:102320009295990F990F907C8A818F7B892B8A8354
:10233000CE01029661E00E94E40E89810F900F9019
:102340000F900F90CF91DF910895DF93CF9300D03E
:1023500000D0CDB7DEB79C838B8381E089838B81EE
:102360009C81009711F4198235C0EB81FC8180813A
:102370008F70282F2370EB81FC818081982F92959C
:102380009F709770EB81FC818081382F331F33273A
:10239000331F23708A818C7F822B8A83892F8770D9
:1023A000982F990F990F8A81837E892B8A838A813E
:1023B00080628A83832F8170982F9295990F990F4D
:1023C000907C8A818F7B892B8A83CE01029660E084
:1023D0000E94E40E89810F900F900F900F90CF9183
:1023E000DF910895DF93CF9300D000D0CDB7DEB753
:1023F0009C838B8381E089838B819C81009711F47E
:10240000198234C0EB81FC8180818F70282F23706A
:10241000EB81FC818081982F92959F709770EB8162
:10242000FC818081382F331F3327331F23708A812B
:102430008C7F822B8A83892F8770982F990F990F11
:102440008A81837E892B8A838A8180628A83832F13
:102450008170982F9295990F990F907C8A818F7B2C
:10246000892B8A83CE0102960E94C90F89810F9021
:102470000F900F900F90CF91DF910895DF93CF933E
:1024800000D00F92CDB7DEB79B838A8381E089832A
:102490008A819B81009711F4198205C08A819B81F2
:1024A0000E94F80D898389810F900F900F90CF9132
:1024B000DF910895DF93CF9300D000D000D0CDB747
:1024C000DEB79C838B837E836D8319821A828B8116
:1024D0009C81009721F08D819E81009711F41982D3
:1024E0002BC08B819C819E012E5F3F4FB9010E94C2
:1024F0007A0FEB81FC818281882361F48A818130AB
:1025000021F4ED81FE81108215C0ED81FE8181E014
:10251000808310C0EB81FC818281813059F48A81F3
:10252000882321F4ED81FE81108204C0ED81FE81BB
:1025300081E0808381E08983898126960FB6F894B3
:10254000DEBF0FBECDBFCF91DF910895DF93CF9354
:1025500000D000D0CDB7DEB79C838B8381E0898328
:102560008B819C81009711F4198237C0EB81FC812B
:1025700080818770282F2370EB81FC818081982FC8
:102580009695969596959770EB81FC818081382F72
:102590003295369536953370317023708A818C7FF1
:1025A000822B8A83892F8770982F990F990F8A81A0
:1025B000837E892B8A838A8180628A83832F8170BC
:1025C000982F9295990F990F907C8A818F7B892BF8
:1025D0008A83CE0102960E941A1089810F900F9073
:1025E0000F900F90CF91DF910895DF93CF9300D09C
:1025F00000D0CDB7DEB79C838B8381E089838B814C
:102600009C81009711F4198238C0EB81FC81808194
:102610008770282F2370EB81FC818081982F9695FD
:10262000969596959770EB81FC818081382F329535
:10263000369536953370317023708A818C7F822B6A
:102640008A83892F8770982F990F990F8A81837EAB
:10265000892B8A838A8180628A83832F8170982F55
:102660009295990F990F907C8A818F7B892B8A8311
:10267000CE01029661E00E94E40E89810F900F90D6
:102680000F900F90CF91DF910895DF93CF9300D0FB
:1026900000D0CDB7DEB79C838B8381E089838B81AB
:1026A0009C81009711F4198238C0EB81FC818081F4
:1026B0008770282F2370EB81FC818081982F96955D
:1026C000969596959770EB81FC818081382F329595
:1026D000369536953370317023708A818C7F822BCA
:1026E0008A83892F8770982F990F990F8A81837E0B
:1026F000892B8A838A8180628A83832F8170982FB5
:102700009295990F990F907C8A818F7B892B8A8370
:10271000CE01029660E00E94E40E89810F900F9036
:102720000F900F90CF91DF910895DF93CF9300D05A
:1027300000D0CDB7DEB79C838B8381E089838B810A
:102740009C81009711F4198237C0EB81FC81808154
:102750008770282F2370EB81FC818081982F9695BC
:10276000969596959770EB81FC818081382F3295F4
:10277000369536953370317023708A818C7F822B29
:102780008A83892F8770982F990F990F8A81837E6A
:10279000892B8A838A8180628A83832F8170982F14
:1027A0009295990F990F907C8A818F7B892B8A83D0
:1027B000CE0102960E94C90F89810F900F900F9051
:1027C0000F90CF91DF910895DF93CF93CDB7DEB710
:1027D000A0970FB6F894DEBF0FBECDBF98A38F8F22
:1027E00081E08E8F1D8E8F8D98A1009711F41E8E23
:1027F0003CC18F8D98A10E941A108E8F8F8D98A149
:1028000001960E941A108E8F1D8E10C08F8D98A178
:102810009C012E5F3F4F8D8D882F90E0820F931F7C
:102820000E941A108E8F8D8D8F5F8D8F8D8D8430CD
:1028300068F380E090E0A0E2B2E4898F9A8FAB8FDA
:10284000BC8F698D7A8D8B8D9C8D20E030E04AEFB6
:1028500054E40E941F02DC01CB018D8B9E8BAF8B59
:10286000B88F6D897E898F89988D20E030E040E8AF
:102870005FE30E94250488232CF481E090E09C8B88
:102880008B8B3FC06D897E898F89988D20E03FEFCB
:102890004FE757E40E94C50318164CF5698D7A8DF1
:1028A0008B8D9C8D20E030E040E251E40E941F02BD
:1028B000DC01CB01BC01CD010E944900DC01CB0150
:1028C0009C8B8B8B0FC088EC90E09A8B898B8989CD
:1028D0009A890197F1F79A8B898B8B899C8901974B
:1028E0009C8B8B8B8B899C89009769F714C06D89B1
:1028F0007E898F89988D0E944900DC01CB019C8BD9
:102900008B8B8B899C89988B8F878F859889019772
:10291000F1F7988B8F878F8D98A163E00E94CC1B75
:102920008F8D98A10E94191C8F8D98A163E00E9441
:10293000CC1B8F8D98A10E94191C8F8D98A163E0EC
:102940000E94CC1B8F8D98A10E94191C8F8D98A17D
:1029500062E00E94CC1B8F8D98A10E94191C8F8D64
:1029600098A168E20E943F158F8D98A16CE00E94AB
:102970003F158F8D98A166E00E943F158F8D98A11D
:1029800061E00E943F1580E090E0A0E4B0E48B8716
:102990009C87AD87BE876B857C858D859E8520E075
:1029A00030E04AEF54E40E941F02DC01CB018F8328
:1029B0009887A987BA876F81788589859A8520E06D
:1029C00030E040E85FE30E94250488232CF481E096
:1029D00090E09E838D833FC06F81788589859A853D
:1029E00020E03FEF4FE757E40E94C50318164CF56F
:1029F0006B857C858D859E8520E030E040E251E44A
:102A00000E941F02DC01CB01BC01CD010E944900E4
:102A1000DC01CB019E838D830FC088EC90E09C830A
:102A20008B838B819C810197F1F79C838B838D81B4
:102A30009E8101979E838D838D819E81009769F78A
:102A400014C06F81788589859A850E944900DC01D0
:102A5000CB019E838D838D819E819A838983898119
:102A60009A810197F1F79A8389838E8DA0960FB68C
:102A7000F894DEBF0FBECDBFCF91DF910895DF93F5
:102A8000CF9300D000D0CDB7DEB79B838A836C8311
:102A900081E089838A819B81009711F4198220C08B
:102AA0008A819B8160E00E94E40E89838C81282FBB
:102AB00022952F708A819B81622F0E94CC1B898373
:102AC0008A819B810E94191C89838A819B816C81E8
:102AD0000E94CC1B89838A819B810E94191C898357
:102AE00089810F900F900F900F90CF91DF910895F3
:102AF000DF93CF9300D000D0CDB7DEB79B838A831E
:102B00006C8381E089838A819B81009711F419820B
:102B100020C08A819B8161E00E94E40E89838C81C0
:102B2000282F22952F708A819B81622F0E94CC1BB7
:102B300089838A819B810E94191C89838A819B8158
:102B40006C810E94CC1B89838A819B810E94191C05
:102B5000898389810F900F900F900F90CF91DF9113
:102B60000895DF93CF9300D000D000D0CDB7DEB76B
:102B70009B838A836C834D832E8381E089838A8142
:102B80009B81009711F419820BC08A819B816C8113
:102B90004D810E94891D8A819B816E810E947815DA
:102BA000898126960FB6F894DEBF0FBECDBFCF91B8
:102BB000DF910895DF93CF9300D000D00F92CDB76F
:102BC000DEB79B838A837D836C8381E089838A81DE
:102BD0009B81009721F08C819D81009781F419825F
:102BE00013C0EC81FD8120818C819D8101969D83A4
:102BF0008C838A819B81622F0E9478158983EC8166
:102C0000FD818081882369F789810F900F900F9053
:102C10000F900F90CF91DF910895DF93CF93CDB7B1
:102C2000DEB727970FB6F894DEBF0FBECDBF9B83EC
:102C30008A836C834D833F832E8381E089838A81DD
:102C40009B81009721F08E819F81009711F419825A
:102C50001BC08A819B816C814D810E94891D898363
:102C60000EC0EE81FF8120818E819F8101969F831E
:102C70008E838A819B81622F0E9478158983EE81E1
:102C8000FF818081882369F7898127960FB6F894A0
:102C9000DEBF0FBECDBFCF91DF9108950F93DF93BD
:102CA000CF93CDB7DEB729970FB6F894DEBF0FBE2E
:102CB000CDBF9C838B836D834E8338872F83098799
:102CC00081E08A8319828B819C81009711F41A829A
:102CD00030C08985882F90E00896880F991F880F4B
:102CE000991F880F991F282F8B819C81622F0E942A
:102CF0003F158A83198212C08981282F30E08F8185
:102D00009885FC01E20FF31F20818B819C81622F4B
:102D10000E9478158A8389818F5F898389818830B1
:102D200058F38B819C816D814E8129850E94B1155C
:102D30008A838A8129960FB6F894DEBF0FBECDBF75
:102D4000CF91DF910F910895DF93CF9300D000D002
:102D5000CDB7DEB79A8389836B838B818823C1F0DB
:102D60008B819AE0692F0E94D520282F89819A8132
:102D7000622F0E94A4168B819AE0692F0E94D520B1
:102D8000892F282F205D89819A81622F0E947815D2
:102D90000F900F900F900F90CF91DF910895DF93D8
:102DA000CF93CDB7DEB727970FB6F894DEBF0FBE2F
:102DB000CDBF9A8389836B834C833E832D83898126
:102DC0009A816B814C810E94891D8D819E81009723
:102DD000E1F08D819E812AE030E0B9010E94E1207E
:102DE000CB01282F89819A81622F0E94A4168D81A0
:102DF0009E812AE030E0B9010E94E120282F205D69
:102E000089819A81622F0E94781527960FB6F894CF
:102E1000DEBF0FBECDBFCF91DF910895DF93CF937B
:102E2000CDB7DEB7EC970FB6F894DEBF0FBECDBFBF
:102E30009CAF8BAF81E08AAF19AE8BAD9CAD009794
:102E400011F41AAEFFC18BAD9CAD0E941A108AAF6F
:102E50008BAD9CAD01960E941A108AAF19AE0FC0BF
:102E60008BAD9CAD9C012E5F3F4F89AD882F90E0CC
:102E7000820F931F0E941A1089AD8F5F89AF89ADB1
:102E8000883070F380E090E0A0E2B2E48DAB9EABBE
:102E9000AFABB8AF6DA97EA98FA998AD20E030E0A7
:102EA0004AEF54E40E941F02DC01CB0189AB9AABCC
:102EB000ABABBCAB69A97AA98BA99CA920E030E097
:102EC00040E85FE30E94250488232CF481E090E031
:102ED00098AB8FA73FC069A97AA98BA99CA920E0CC
:102EE0003FEF4FE757E40E94C50318164CF56DA954
:102EF0007EA98FA998AD20E030E040E251E40E9425
:102F00001F02DC01CB01BC01CD010E944900DC01A4
:102F1000CB0198AB8FA70FC088EC90E09EA78DA740
:102F20008DA59EA50197F1F79EA78DA78FA598A9BE
:102F3000019798AB8FA78FA598A9009769F714C040
:102F400069A97AA98BA99CA90E944900DC01CB013F
:102F500098AB8FA78FA598A99CA78BA78BA59CA59D
:102F60000197F1F79CA78BA78BAD9CAD68E30E94FE
:102F70002C198AAF80E090E0A0E8BFE38FA398A768
:102F8000A9A7BAA76FA178A589A59AA520E030E0E6
:102F90004AEF54E40E941F02DC01CB018BA39CA3E7
:102FA000ADA3BEA36BA17CA18DA19EA120E030E0CA
:102FB00040E85FE30E94250488232CF481E090E040
:102FC0009AA389A33FC06BA17CA18DA19EA120E003
:102FD0003FEF4FE757E40E94C50318164CF56FA169
:102FE00078A589A59AA520E030E040E251E40E944E
:102FF0001F02DC01CB01BC01CD010E944900DC01B4
:10300000CB019AA389A30FC088EC90E098A38F8F7F
:103010008F8D98A10197F1F798A38F8F89A19AA11D
:1030200001979AA389A389A19AA1009769F714C06F
:103030006BA17CA18DA19EA10E944900DC01CB0166
:103040009AA389A389A19AA19E8F8D8F8D8D9E8D24
:103050000197F1F79E8F8D8F8BAD9CAD6CE00E9438
:103060002C198AAF80E090E0A0E0B0E4898F9A8FBD
:10307000AB8FBC8F698D7A8D8B8D9C8D20E030E07D
:103080004AEF54E40E941F02DC01CB018D8B9E8B22
:10309000AF8BB88F6D897E898F89988D20E030E065
:1030A00040E85FE30E94250488232CF481E090E04F
:1030B0009C8B8B8B3FC06D897E898F89988D20E09A
:1030C0003FEF4FE757E40E94C50318164CF5698D92
:1030D0007A8D8B8D9C8D20E030E040E251E40E949F
:1030E0001F02DC01CB01BC01CD010E944900DC01C3
:1030F000CB019C8B8B8B0FC088EC90E09A8B898BDB
:1031000089899A890197F1F79A8B898B8B899C8998
:1031100001979C8B8B8B8B899C89009769F714C0D6
:103120006D897E898F89988D0E944900DC01CB01D1
:103130009C8B8B8B8B899C89988B8F878F859889AB
:103140000197F1F7988B8F878BAD9CAD61E00E9462
:103150002C198AAF80E090E0A0E0B0E48B879C87D8
:10316000AD87BE876B857C858D859E8520E030E0B0
:103170004AEF54E40E941F02DC01CB018F83988741
:10318000A987BA876F81788589859A8520E030E0A4
:1031900040E85FE30E94250488232CF481E090E05E
:1031A0009E838D833FC06F81788589859A8520E0D5
:1031B0003FEF4FE757E40E94C50318164CF56B85A7
:1031C0007C858D859E8520E030E040E251E40E94C0
:1031D0001F02DC01CB01BC01CD010E944900DC01D2
:1031E000CB019E838D830FC088EC90E09C838B8302
:1031F0008B819C810197F1F79C838B838D819E81CC
:1032000001979E838D838D819E81009769F714C0FD
:103210006F81788589859A850E944900DC01CB0100
:103220009E838D838D819E819A83898389819A81F2
:103230000197F1F79A8389838BAD9CAD60E80E947A
:103240002C198AAF8AADEC960FB6F894DEBF0FBE8C
:10325000CDBFCF91DF910895DF93CF9300D000D001
:103260000F92CDB7DEB79C838B836D8381E08A8319
:1032700019828B819C81009711F41A8232C08B8154
:103280009C8160E00E94E40E8A83198222C08B81B7
:103290009C819C012E5F3F4F8981882F90E0A9017E
:1032A000480F591F8D81282F30E08981882F90E0A9
:1032B000B90102C0759567958A95E2F7CB01282F71
:1032C0002170CA01622F0E94E40E8A8389818F5F78
:1032D000898389818830D8F28B819C810E94B11CBE
:1032E0008A838A810F900F900F900F900F90CF914B
:1032F000DF910895DF93CF9300D000D00F92CDB728
:10330000DEB79C838B836D8381E08A8319828B81F6
:103310009C81009711F41A8232C08B819C8161E0FC
:103320000E94E40E8A83198222C08B819C819C01B9
:103330002E5F3F4F8981882F90E0A901480F591FC8
:103340008D81282F30E08981882F90E0B90102C05B
:10335000759567958A95E2F7CB01282F2170CA01F0
:10336000622F0E94E40E8A8389818F5F898389811D
:103370008830D8F28B819C810E94B11C8A838A811B
:103380000F900F900F900F900F90CF91DF910895B5
:10339000DF93CF9300D000D000D0CDB7DEB79B83B2
:1033A0008A836C834D832E8381E089838A819B810C
:1033B000009711F419820CC08A819B816C814D8128
:1033C0000E94491D8A819B816E810E947A1989839E
:1033D000898126960FB6F894DEBF0FBECDBFCF9180
:1033E000DF910895DF93CF9300D000D00F92CDB737
:1033F000DEB79B838A837D836C8381E089838A81A6
:103400009B81009721F08C819D81009781F4198226
:1034100013C0EC81FD8120818C819D8101969D836B
:103420008C838A819B81622F0E947A198983EC8127
:10343000FD818081882369F789810F900F900F901B
:103440000F900F90CF91DF910895DF93CF93CDB779
:10345000DEB727970FB6F894DEBF0FBECDBF9B83B4
:103460008A836C834D833F832E8381E089838A81A5
:103470009B81009721F08E819F81009711F4198222
:103480001BC08A819B816C814D810E94491D89836B
:103490000EC0EE81FF8120818E819F8101969F83E6
:1034A0008E838A819B81622F0E947A198983EE81A3
:1034B000FF818081882369F7898127960FB6F89468
:1034C000DEBF0FBECDBFCF91DF9108950F93DF9385
:1034D000CF93CDB7DEB729970FB6F894DEBF0FBEF6
:1034E000CDBF9C838B836D834E8338872F83098761
:1034F00081E08A8319828B819C81009711F41A8262
:1035000030C08985882F90E00896880F991F880F12
:10351000991F880F991F282F8B819C81622F0E94F1
:103520002C198A83198212C08981282F30E08F815B
:103530009885FC01E20FF31F20818B819C81622F13
:103540000E947A198A8389818F5F89838981883073
:1035500058F38B819C816D814E8129850E94C81909
:103560008A838A8129960FB6F894DEBF0FBECDBF3D
:10357000CF91DF910F910895DF93CF9300D000D0CA
:10358000CDB7DEB78A837C836B8381E089838B81AF
:103590009C81009711F4198225C08B819C816AE07F
:1035A00070E044E050E00E942C218A81282F30E016
:1035B00000D000D000D0EDB7FEB731968B819C8152
:1035C0009183808380E690E0938382833583248394
:1035D0000E9433218DB79EB706960FB6F8949EBF12
:1035E0000FBE8DBF89810F900F900F900F90CF91DC
:1035F000DF910895DF93CF9300D000D000D0CDB7F6
:10360000DEB79C838B837E836D8381E08A838D818B
:103610009E81009721F08B819C81009711F41A8282
:1036200031C0EB81FC811082198221C0EB81FC81C9
:103630008081882F90E09C01220F331FC901880FE1
:10364000991F880F991F820F931F482F8981282F58
:1036500030E08D819E81FC01E20FF31F8081840F99
:103660008053EB81FC81808389818F5F898389818D
:10367000282F30E08D819E81FC01E20FF31F8081B5
:103680008823A1F68A8126960FB6F894DEBF0FBE76
:10369000CDBFCF91DF910895DF93CF9300D000D0BD
:1036A0000F92CDB7DEB79B838A837D836C8381E0E5
:1036B00089838C819D81009711F4198224C08C81AB
:1036C0009D816AE070E046E050E00E942C2100D02D
:1036D00000D000D0EDB7FEB731968C819D819183EB
:1036E000808380E690E0938382838A819B819583A7
:1036F00084830E9433218DB79EB706960FB6F89447
:103700009EBF0FBE8DBF89810F900F900F900F90BD
:103710000F90CF91DF910895DF93CF9300D000D029
:103720000F92CDB7DEB79B838A837D836C8381E064
:1037300089838C819D81009711F4198224C08C812A
:103740009D816AE070E04BE050E00E942C2100D0A7
:1037500000D000D0EDB7FEB731968C819D8191836A
:10376000808380E690E0938382838A819B81958326
:1037700084830E9433218DB79EB706960FB6F894C6
:103780009EBF0FBE8DBF89810F900F900F900F903D
:103790000F90CF91DF910895DF93CF9300D000D0A9
:1037A000CDB7DEB79B838A836C8381E089838A816E
:1037B0009B819C012E5F3F4F8C81482F4170C90136
:1037C000642F0E94E40E89838A819B819C012D5F76
:1037D0003F4F8C818695482F4170C901642F0E940C
:1037E000E40E89838A819B819C012C5F3F4F8C81F1
:1037F00086958695482F4170C901642F0E94E40E7A
:1038000089838A819B819C012B5F3F4F8C818695A8
:1038100086958695482F4170C901642F0E94E40E59
:10382000898389810F900F900F900F90CF91DF9136
:103830000895DF93CF93CDB7DEB761970FB6F894B5
:10384000DEBF0FBECDBF998B888B81E08F878889C3
:103850009989019661E00E94E40E8F8780E090E0F4
:10386000A0EAB0E48B879C87AD87BE876B857C859B
:103870008D859E8520E030E04AEF54E40E941F02CF
:10388000DC01CB018F839887A987BA876F81788500
:1038900089859A8520E030E040E85FE30E942504B6
:1038A00088232CF481E090E09E838D833FC06F815C
:1038B000788589859A8520E03FEF4FE757E40E949D
:1038C000C50318164CF56B857C858D859E8520E09B
:1038D00030E040E251E40E941F02DC01CB01BC0158
:1038E000CD010E944900DC01CB019E838D830FC076
:1038F00088EC90E09C838B838B819C810197F1F70E
:103900009C838B838D819E8101979E838D838D8186
:103910009E81009769F714C06F81788589859A85A3
:103920000E944900DC01CB019E838D838D819E81A5
:103930009A83898389819A810197F1F79A83898390
:1039400088899989019660E00E94E40E8F878F85AF
:1039500061960FB6F894DEBF0FBECDBFCF91DF9159
:103960000895DF93CF93CDB7DEB761970FB6F89484
:10397000DEBF0FBECDBF998B888B81E08F87888992
:103980009989019661E00E94E40E8F8780E090E0C3
:10399000A0EAB0E48B879C87AD87BE876B857C856A
:1039A0008D859E8520E030E04AEF54E40E941F029E
:1039B000DC01CB018F839887A987BA876F817885CF
:1039C00089859A8520E030E040E85FE30E94250485
:1039D00088232CF481E090E09E838D833FC06F812B
:1039E000788589859A8520E03FEF4FE757E40E946C
:1039F000C50318164CF56B857C858D859E8520E06A
:103A000030E040E251E40E941F02DC01CB01BC0126
:103A1000CD010E944900DC01CB019E838D830FC044
:103A200088EC90E09C838B838B819C810197F1F7DC
:103A30009C838B838D819E8101979E838D838D8155
:103A40009E81009769F714C06F81788589859A8572
:103A50000E944900DC01CB019E838D838D819E8174
:103A60009A83898389819A810197F1F79A8389835F
:103A700088899989019660E00E94E40E8F878F857E
:103A800061960FB6F894DEBF0FBECDBFCF91DF9128
:103A90000895DF93CF93CDB7DEB727970FB6F8948D
:103AA000DEBF0FBECDBF9B838A836C834D8381E0D5
:103AB00089838D8181508D838C81282F30E03F83D5
:103AC0002E838E819F818130910531F02E813F813F
:103AD0002230310559F013C08D81282F20588A815A
:103AE0009B81622F0E942C19898309C08D81282F08
:103AF00020548A819B81622F0E942C19898389819D
:103B000027960FB6F894DEBF0FBECDBFCF91DF91E1
:103B10000895DF93CF93CDB7DEB727970FB6F8940C
:103B2000DEBF0FBECDBF9B838A836C834D8381E054
:103B300089838D8181508D838C81282F30E03F8354
:103B40002E838E819F818130910531F02E813F81BE
:103B50002230310559F013C08D81282F20588A81D9
:103B60009B81622F0E943F15898309C08D81282F78
:103B700020548A819B81622F0E943F15898389810D
:103B800027960FB6F894DEBF0FBECDBFCF91DF9161
:103B90000895DF93CF9300D000D00F92CDB7DEB75A
:103BA0009D838C8381E08B831A8219828C819D8115
:103BB000009711F41B8227C01A820DC02C813D8111
:103BC0008A81882F90E0820F931F0E941A108B83A6
:103BD0008A818F5F8A838A81843080F3198210C042
:103BE0008C819D819C012C5F3F4F8981882F90E0C3
:103BF000820F931F0E94F80D8B8389818F5F8983C9
:103C00008981843068F38B810F900F900F900F9013
:103C10000F90CF91DF910895DF93CF93CDB7DEB7AB
:103C200069970FB6F894DEBF0FBECDBF9D8B8C8B0E
:103C30007F8B6E8B598F488F1A8AE88DF98D108291
:103C4000198A188A1F861B8A8C899D89009721F002
:103C50008E899F89009711F41A8ACFC0198AC7C02C
:103C60001F860EC02C893D898F85882F90E0820F9A
:103C7000931F60E00E94E40E8A8B8F858F5F8F8791
:103C80008F85843078F32C893D898989882F90E04D
:103C9000820F931F61E00E94E40E8A8B80E090E027
:103CA000A0E8BFE38B879C87AD87BE876B857C854B
:103CB0008D859E8520E030E04AEF54E40E941F028B
:103CC000DC01CB018F839887A987BA876F817885BC
:103CD00089859A8520E030E040E85FE30E94250472
:103CE00088232CF481E090E09E838D833FC06F8118
:103CF000788589859A8520E03FEF4FE757E40E9459
:103D0000C50318164CF56B857C858D859E8520E056
:103D100030E040E251E40E941F02DC01CB01BC0113
:103D2000CD010E944900DC01CB019E838D830FC031
:103D300088EC90E09C838B838B819C810197F1F7C9
:103D40009C838B838D819E8101979E838D838D8142
:103D50009E81009769F714C06F81788589859A855F
:103D60000E944900DC01CB019E838D838D819E8161
:103D70009A83898389819A810197F1F79A8389834C
:103D8000188A2FC08C899D899C012C5F3F4F8889A0
:103D9000882F90E0820F931F9E012D5E3F4FB90147
:103DA0000E947A0F8A8B8B898130C1F48989482FD0
:103DB00050E08889282F30E0CA01880F991F880FAA
:103DC000991F820F931FFC01E253FE4F8081EE8901
:103DD000FF898083E88DF98D81E0808388898F5FFA
:103DE000888B8889843070F289898F5F898B898973
:103DF000843008F435CF81E08A8B8A8969960FB6C2
:103E0000F894DEBF0FBECDBFCF91DF910895DF9351
:103E1000CF9300D00F92CDB7DEB79B838A8381E02A
:103E200089838A819B81009711F4198222C08A813B
:103E30009B810E941A108A819B8101960E941A1010
:103E40008A819B8102960E941A108A819B81039627
:103E50000E941A108A819B8104960E941A108A81FE
:103E60009B8105960E941A108A819B8106960E946A
:103E70001A1089810F900F900F90CF91DF910895C4
:103E8000DF93CF9300D000D0CDB7DEB79B838A837A
:103E90006C8381E089838A819B81009729F48C81DE
:103EA0008A3010F019828AC04A815B818C81882F08
:103EB00090E0FC01ED57FE4F8081282F2170CA0150
:103EC000622F0E94E40E8A819B81AC014F5F5F4F9D
:103ED0008C81882F90E0FC01ED57FE4F8081869504
:103EE000282F2170CA01622F0E94E40E8A819B81D3
:103EF000AC014E5F5F4F8C81882F90E0FC01ED5745
:103F0000FE4F808186958695282F2170CA01622FE9
:103F10000E94E40E8A819B81AC014D5F5F4F8C81D2
:103F2000882F90E0FC01ED57FE4F808186958695A5
:103F30008695282F2170CA01622F0E94E40E8A8183
:103F40009B81AC014C5F5F4F8C81882F90E0FC011E
:103F5000ED57FE4F808182958F70282F2170CA0106
:103F6000622F0E94E40E8A819B81AC014B5F5F4F00
:103F70008C81882F90E0FC01ED57FE4F8081829567
:103F800086958770282F2170CA01622F0E94E40E47
:103F90008A819B81AC014A5F5F4F8C81882F90E0C2
:103FA000FC01ED57FE4F8081829586958695837042
:103FB000282F2170CA01622F0E94E40E89810F9080
:103FC0000F900F900F90CF91DF910895DF93CF93D3
:103FD00000D00F92CDB7DEB79B838A8381E08983BF
:103FE0008A819B81009711F4198209C08A819B8183
:103FF0000E941A108A819B8101960E941A10898161
:104000000F900F900F90CF91DF910895DF93CF9392
:1040100000D00F92CDB7DEB79B838A8381E089837E
:104020008A819B81009711F419820BC08A819B8140
:1040300061E00E94E40E8A819B81019660E00E940B
:10404000E40E89810F900F900F90CF91DF9108952A
:10405000DF93CF9300D00F92CDB7DEB79B838A83D7
:1040600081E089838A819B81009711F419820BC0BA
:104070008A819B8160E00E94E40E8A819B81019687
:1040800061E00E94E40E89810F900F900F90CF9114
:10409000DF910895DF93CF9300D00F92CDB7DEB7B5
:1040A0009B838A8381E089838A819B81009711F4B5
:1040B00019820BC08A819B8160E00E94E40E8A8194
:1040C0009B81019660E00E94E40E89810F900F9021
:1040D0000F90CF91DF910895DF93CF930F92CDB7DB
:1040E000DEB719828FE991E00E94E413898387E9A2
:1040F00091E00E94C91D89830F90CF91DF910895AF
:10410000DF93CF93CDB7DEB70E94C62089EB91E055
:104110002CEE31E062E0A9010E941B0C8093F201B9
:104120008091EC019091ED01CC01A0E0B0E0BC01E8
:10413000CD010E94A904DC01CB01BC01CD0126EF19
:1041400038E24CE950E40E941F02DC01CB01BC01C3
:10415000CD0120E030E040E251E40E941903DC018F
:10416000CB01BC01CD010E944900DC01CB01909341
:10417000ED018093EC012091EC013091ED018FE98C
:1041800091E061E041E00E94CF16C0CFDF93CF9372
:10419000CDB7DEB70E946C2089EB91E00E94A50AA2
:1041A0008093F201CF91DF910895991B79E004C0CB
:1041B000991F961708F0961B881F7A95C9F7809566
:1041C0000895AA1BBB1B51E107C0AA1FBB1FA6175E
:1041D000B70710F0A61BB70B881F991F5A95A9F7B0
:1041E00080959095BC01CD0108952F923F924F92FA
:1041F0005F926F927F928F929F92AF92BF92CF9277
:10420000DF92EF92FF920F931F93CF93DF93CDB77F
:10421000DEB7CA1BDB0B0FB6F894DEBF0FBECDBFF7
:1042200009942A88398848885F846E847D848C84C8
:104230009B84AA84B984C884DF80EE80FD800C81D1
:104240001B81AA81B981CE0FD11D0FB6F894DEBFB4
:104250000FBECDBFED010895DC0101C06D9341504B
:104260005040E0F70895AEE0B0E0E9E3F1E20C94ED
:1042700003210D891E8986E08C831A8309838FEFC1
:104280009FE79E838D839E01275E3F4FCE0101965F
:104290006F89788DA9010E9457212F813885020FDF
:1042A000131FF80110822E96E4E00C941F21ABE05E
:1042B000B0E0EDE5F1E20C94F5203C012B015A0150
:1042C000FC0117821682838181FD03C06FEF7FEFAF
:1042D000C6C19AE0892E1E010894211C311CF301ED
:1042E0002381F20123FD859123FF81912F018823F2
:1042F00009F4B2C1853239F423FD859123FF819100
:104300002F01853229F490E0B3010E944A23E7CFC0
:10431000982FFF24EE249924FFE1FF15D0F09B3263
:1043200069F09C3228F4903259F0933291F40EC027
:104330009D3249F0903369F441E024C052E0F52AFF
:1043400084E0F82A28C098E0F92A25C0E0E1FE2A96
:1043500022C0F7FC29C0892F80538A3070F4F6FE02
:1043600005C0989C902C1124980E15C0E89CE02C58
:104370001124E80EF0E2FF2A0EC09E3229F4F6FC6A
:104380006BC140E4F42A07C09C3619F450E8F52AC2
:1043900002C0983649F4F20123FD959123FF9191D3
:1043A0002F01992309F0B8CF892F8554833018F055
:1043B0008052833038F444E050E0A40EB51E5FE331
:1043C00059830FC0933631F0933779F0933509F064
:1043D00056C020C0F5018081898342E050E0A40EE0
:1043E000B51E610101E010E012C0F501C080D1806E
:1043F000F6FC03C06FEF7FEF02C0692D70E042E072
:1044000050E0A40EB51EC6010E943F238C015FE759
:10441000F52214C0F501C080D180F6FC03C06FEF17
:104420007FEF02C0692D70E042E050E0A40EB51E9F
:10443000C6010E9434238C0150E8F52AF3FE07C020
:104440001AC080E290E0B3010E944A23EA948E2DC4
:1044500090E008171907A8F30EC0F601F7FC859144
:10446000F7FE81916F0190E0B3010E944A23E110B1
:10447000EA94015010400115110579F7EAC094360D
:1044800011F0993669F5F7FE08C0F50120813181F8
:104490004281538184E090E00AC0F50180819181DE
:1044A0009C01442737FD4095542F82E090E0A80EF0
:1044B000B91E9FE6F92257FF09C0509540953095E7
:1044C00021953F4F4F4F5F4FE0E8FE2ACA01B901E7
:1044D000A1012AE030E00E947623D82ED21840C0F5
:1044E000953729F41F2D1F7E2AE030E01DC01F2DB7
:1044F000197F9F3661F0903720F4983509F0ACC0F1
:104500000FC0903739F0983709F0A6C004C028E0F2
:1045100030E00AC0106114FD146020E130E004C0F6
:1045200014FD166020E132E017FF08C0F50160813C
:1045300071818281938144E050E008C0F50180815F
:104540009181BC0180E090E042E050E0A40EB51EF5
:10455000A1010E947623D82ED2188FE7F82EF122DF
:10456000F6FE0BC05EEFF522D91438F4F4FE07C056
:10457000F2FC05C08FEEF82202C01D2D01C0192DDE
:10458000F4FE0DC0FE01ED0DF11D8081803319F4A4
:1045900099EEF92208C01F5FF2FE05C003C08F2DFF
:1045A000867809F01F5F0F2DF3FC14C0F0FE0FC0DA
:1045B0001E1510F09D2C0BC09D2C9E0C911A1E2DCB
:1045C00006C080E290E0B3010E944A231F5F1E15DF
:1045D000C0F304C01E1510F4E11A01C0EE2404FF5C
:1045E0000FC080E390E0B3010E944A2302FF1DC088
:1045F00001FD03C088E790E00EC088E590E00BC0A5
:10460000802F867891F001FF02C08BE201C080E22A
:10461000F7FC8DE290E0B3010E944A2306C080E3DC
:1046200090E0B3010E944A239A94D914C0F3DA941B
:10463000F101ED0DF11D808190E0B3010E944A234C
:10464000DD20A9F706C080E290E0B3010E944A2372
:10465000EA94EE20C1F743CEF30166817781CB0166
:104660002B96E2E10C941121FC0105906150704001
:104670000110D8F7809590958E0F9F1F0895FC012B
:104680006150704001900110D8F7809590958E0F81
:104690009F1F08950F931F93CF93DF938C01EB011E
:1046A0008B8181FF1BC082FF0DC02E813F818C81D9
:1046B0009D812817390764F4E881F9810193F98312
:1046C000E88306C0E885F985802F0995892B31F4A8
:1046D0008E819F8101969F838E8302C00FEF1FEF13
:1046E000C801DF91CF911F910F910895FA01AA2778
:1046F000283051F1203181F1E8946F936E7F6E5F25
:104700007F4F8F4F9F4FAF4FB1E03ED0B4E03CD0D2
:10471000670F781F891F9A1FA11D680F791F8A1FB5
:10472000911DA11D6A0F711D811D911DA11D20D01C
:1047300009F468943F912AE0269F11243019305DD6
:104740003193DEF6CF010895462F4770405D4193C7
:10475000B3E00FD0C9F7F6CF462F4F70405D4A3314
:1047600018F0495D31FD4052419302D0A9F7EACFDC
:10477000B4E0A6959795879577956795BA95C9F70B
:1047800000976105710508959B01AC010A2E0694FE
:104790005795479537952795BA95C9F7620F731FB7
:0C47A000841F951FA01D0895F894FFCF02
:1047AC002569000000000000000000000102020367
:1047BC0003030304040404040404040505050505AB
:1047CC000505050505050505050505060606060688
:1047DC00060606060606060606060606060606066D
:1047EC000606060606060606060606070707070758
:1047FC00070707070707070707070707070707073D
:10480C00070707070707070707070707070707072C
:10481C00070707070707070707070707070707071C
:10482C000707070707070707070707080808080807
:10483C0008080808080808080808080808080808EC
:10484C0008080808080808080808080808080808DC
:10485C0008080808080808080808080808080808CC
:10486C0008080808080808080808080808080808BC
:10487C0008080808080808080808080808080808AC
:10488C00080808080808080808080808080808089C
:10489C00080808080808080808080808080808088C
:1048AC0008080808080808080808083A00370034FF
:1048BC000031003B0038003500320039003600333F
:1048CC000030003F065B4F666D7D07FF6F3F065B58
:1048DC004F666D7D07FF6F23272B2F13171B1F317F
:1048EC00352125292D232B2125292D3135393D3FE6
:1048FC00065B4F666D7D07FF6F00000400003738C4
:10490C00392F3435362A3132332D23303D2B0708DD
:0E491C00092F0405062A0102032D23003D2B5E
:00000001FF
