:100000000C942A000C9447000C9447000C94470071
:100010000C9447000C9447000C9447000C94470044
:100020000C9447000C9447000C9447000C94470034
:100030000C9447000C9447000C9447000C94470024
:100040000C9447000C9447000C9447000C94470014
:100050000C94470011241FBECFE5D8E0DEBFCDBF12
:1000600010E0A0E6B0E0EEEDFAE002C005900D92DF
:10007000A238B107D9F710E0A2E8B0E001C01D92A4
:10008000A438B107E1F70E9446050C946D050C9465
:100090000000DF93CF9300D000D00F92CDB7DEB732
:1000A0009B838A8381E089838A819B81009759F0B1
:1000B000EA81FB818081869586958770882F90E004
:1000C0008830910514F0198275C0EA81FB81808126
:1000D0008295869587708170282F30E03D832C8330
:1000E0008C819D810097B1F12C813D8121303105BA
:1000F00009F060C0EA81FB8180818370882F90E0E5
:10010000880F991FFC01E05AFF4FA081B181EA815D
:10011000FB8180818370882F90E0880F991FFC01FC
:10012000E05AFF4F0190F081E02D8081482FEA8155
:10013000FB818081869586958770282F30E081E04D
:1001400090E0022E02C0880F991F0A94E2F7842BD8
:100150008C9330C0EA81FB8180818370882F90E08E
:10016000880F991FFC01E05AFF4FA081B181EA81FD
:10017000FB8180818370882F90E0880F991FFC019C
:10018000E05AFF4F0190F081E02D8081482FEA81F5
:10019000FB818081869586958770282F30E081E0ED
:1001A00090E0022E02C0880F991F0A94E2F7809512
:1001B00084238C9389810F900F900F900F900F9054
:1001C000CF91DF910895DF93CF9300D000D00F92AD
:1001D000CDB7DEB79B838A837D836C8381E089837F
:1001E0008A819B81009779F08C819D81009759F0DD
:1001F000EA81FB818081869586958770882F90E0C3
:100200008830910514F0198227C0EA81FB81808132
:100210008295869587708170882F90E0880F991F4E
:10022000FC01E05AFF4F0190F081E02D8081282FE2
:1002300030E0EA81FB818081869586958770882FE2
:1002400090E0A90102C0559547958A95E2F7CA0149
:100250008170EC81FD81808389810F900F900F90D8
:100260000F900F90CF91DF910895DF93CF9300D03F
:1002700000D000D0CDB7DEB79B838A836C8381E04A
:1002800089838A819B81009759F0EA81FB81808173
:10029000869586958770882F90E08830910514F0B8
:1002A00019826FC08C81282F30E03E832D838D8191
:1002B0009E810097B1F12D813E812130310509F0F9
:1002C00060C0EA81FB8180818370882F90E0880F75
:1002D000991FFC01E859FF4FA081B181EA81FB81A0
:1002E00080818370882F90E0880F991FFC01E85966
:1002F000FF4F0190F081E02D8081482FEA81FB8142
:100300008081869586958770282F30E081E090E087
:10031000022E02C0880F991F0A94E2F7842B8C9357
:1003200030C0EA81FB8180818370882F90E0880F44
:10033000991FFC01E859FF4FA081B181EA81FB813F
:1003400080818370882F90E0880F991FFC01E85905
:10035000FF4F0190F081E02D8081482FEA81FB81E1
:100360008081869586958770282F30E081E090E027
:10037000022E02C0880F991F0A94E2F78095842309
:100380008C93898126960FB6F894DEBF0FBECDBF41
:10039000CF91DF910895DF93CF9300D000D00F92DB
:1003A000CDB7DEB79B838A837D836C8381E08983AD
:1003B0008A819B81009779F08C819D81009759F00B
:1003C000EA81FB818081869586958770882F90E0F1
:1003D0008830910514F0198224C0EA81FB81808164
:1003E0008370882F90E0880F991FFC01E059FF4F20
:1003F0000190F081E02D8081282F30E0EA81FB819F
:100400008081869586958770882F90E0A90102C02B
:10041000559547958A95E2F7CA018170EC81FD8177
:10042000808389810F900F900F900F900F90CF9144
:10043000DF910895DF93CF9300D00F92CDB7DEB751
:100440009B838A8381E089838A819B81009759F00D
:10045000EA81FB818081869586958770882F90E060
:100460008830910514F019822FC0EA81FB818081C8
:100470008370882F90E0880F991FFC01E859FF4F87
:10048000A081B181EA81FB8180818370882F90E017
:10049000880F991FFC01E859FF4F0190F081E02D72
:1004A0008081482FEA81FB818081869586958770BF
:1004B000282F30E081E090E0022E02C0880F991FC3
:1004C0000A94E2F784278C9389810F900F900F9004
:1004D000CF91DF910895DF93CF9300D00F92CDB7E6
:1004E000DEB79B838A8381E089838A819B81009721
:1004F00011F4198214C08A819B810E94490089836A
:10050000EA81FB81808182958695869583708170D2
:10051000282F8A819B81622F0E94350189838981DE
:100520000F900F900F90CF91DF910895DF93CF93AD
:1005300000D00F92CDB7DEB78A836B8381E08983C9
:100540008A81843010F019820DC08A81882F90E052
:10055000880F991FFC01E05AFF4F0190F081E02DB8
:100560008B81808389810F900F900F90CF91DF91C5
:100570000895DF93CF9300D000D0CDB7DEB78A8344
:100580007C836B8381E089838B819C81009729F434
:100590008A81843010F019820FC08A81882F90E000
:1005A000880F991FFC01E05AFF4F0190F081E02D68
:1005B0008081EB81FC81808389810F900F900F9067
:1005C0000F90CF91DF910895DF93CF9300D00F92DA
:1005D000CDB7DEB78A836B8381E089838A818430DB
:1005E00010F019820DC08A81882F90E0880F991F22
:1005F000FC01E859FF4F0190F081E02D8B81808351
:1006000089810F900F900F90CF91DF910895DF9324
:10061000CF9300D000D0CDB7DEB78A837C836B83C5
:1006200081E089838B819C81009729F48A818430C1
:1006300010F019820FC08A81882F90E0880F991FCF
:10064000FC01E859FF4F0190F081E02D8081EB81A2
:10065000FC81808389810F900F900F900F90CF9134
:10066000DF910895DF93CF9300D0CDB7DEB78A83B3
:1006700081E089838A81843010F0198218C08A81D0
:10068000882F90E0880F991FFC01E859FF4FA08147
:10069000B1818A81882F90E0880F991FFC01E85969
:1006A000FF4F0190F081E02D808180958C938981AE
:1006B0000F900F90CF91DF910895DF93CF9300D0EB
:1006C0000F92CDB7DEB79B838A8381E089838A81CD
:1006D0009B81009711F4198205C08A819B810E9439
:1006E0004900898389810F900F900F90CF91DF91FE
:1006F0000895DF93CF9300D000D000D0CDB7DEB700
:100700009C838B837E836D8319821A828B819C816B
:10071000009721F08D819E81009711F419822BC0E2
:100720008B819C819E012E5F3F4FB9010E94CB01BE
:10073000EB81FC818281882361F48A81813021F4FC
:10074000ED81FE81108215C0ED81FE8181E0808304
:1007500010C0EB81FC818281813059F48A81882329
:1007600021F4ED81FE81108204C0ED81FE8181E0E3
:10077000808381E08983898126960FB6F894DEBF55
:100780000FBECDBFCF91DF910895DF93CF9300D0FF
:1007900000D00F92CDB7DEB79D838C831B821A8267
:1007A00019828C819D81009711F41B8228C0EC81F5
:1007B000FD818081882371F489819A8101969A83D1
:1007C000898389819A8121E0853F920740F01092C8
:1007D000790005C01A82198281E080937900909196
:1007E000790080917800981751F08091790080937A
:1007F000780080917900813011F481E08B838B81C6
:100800000F900F900F900F900F90CF91DF91089560
:10081000DF93CF9300D000D0CDB7DEB79C838B831E
:1008200081E089838B819C81009711F4198237C004
:10083000EB81FC8180818770282F2370EB81FC8104
:100840008081982F9695969596959770EB81FC816F
:100850008081382F329536953695337031702370FC
:100860008A818C7F822B8A83892F8770982F990F9A
:10087000990F8A81837E892B8A838A8180628A8309
:10088000832F8170982F9295990F990F907C8A8170
:100890008F7B892B8A83CE0102960E946B0289810D
:1008A0000F900F900F900F90CF91DF910895DF93ED
:1008B000CF9300D000D0CDB7DEB79C838B8381E08F
:1008C00089838B819C81009711F4198238C0EB8158
:1008D000FC8180818770282F2370EB81FC818081CF
:1008E000982F9695969596959770EB81FC818081CF
:1008F000382F3295369536953370317023708A8152
:100900008C7F822B8A83892F8770982F990F990F5C
:100910008A81837E892B8A838A8180628A83832F5E
:100920008170982F9295990F990F907C8A818F7B77
:10093000892B8A83CE01029661E00E94350189816C
:100940000F900F900F900F90CF91DF910895DF934C
:10095000CF9300D000D0CDB7DEB79C838B8381E0EE
:1009600089838B819C81009711F4198238C0EB81B7
:10097000FC8180818770282F2370EB81FC8180812E
:10098000982F9695969596959770EB81FC8180812E
:10099000382F3295369536953370317023708A81B1
:1009A0008C7F822B8A83892F8770982F990F990FBC
:1009B0008A81837E892B8A838A8180628A83832FBE
:1009C0008170982F9295990F990F907C8A818F7BD7
:1009D000892B8A83CE01029660E00E9435018981CD
:1009E0000F900F900F900F90CF91DF910895DF93AC
:1009F000CF9300D000D0CDB7DEB79C838B8381E04E
:100A000089838B819C81009711F4198237C0EB8117
:100A1000FC8180818770282F2370EB81FC8180818D
:100A2000982F9695969596959770EB81FC8180818D
:100A3000382F3295369536953370317023708A8110
:100A40008C7F822B8A83892F8770982F990F990F1B
:100A50008A81837E892B8A838A8180628A83832F1D
:100A60008170982F9295990F990F907C8A818F7B36
:100A7000892B8A83CE0102960E941A0289810F90E7
:100A80000F900F900F90CF91DF910895DF93CF9348
:100A9000CDB7DEB70E945E058AE790E021E830E03E
:100AA000B9010E94790381E890E00E94C503882380
:100AB00099F380E890E00E94F704EECFDF93CF93A4
:100AC000CDB7DEB780E890E00E9408048AE790E0A6
:0E0AD0000E945D03CF91DF910895F894FFCF4F
:100ADE003A003700340031003B0038003500320058
:100AEE0039003600330030000101010100450101DB
:020AFE000301F2
:00000001FF
